{
  "_format": "hh-sol-artifact-1",
  "contractName": "SHIFTCAPTURES",
  "sourceName": "contracts/SHIFTCAPTURES.sol",
  "abi": [
    {
      "inputs": [],
      "stateMutability": "nonpayable",
      "type": "constructor"
    },
    {
      "anonymous": false,
      "inputs": [
        {
          "indexed": true,
          "internalType": "address",
          "name": "account",
          "type": "address"
        },
        {
          "indexed": true,
          "internalType": "address",
          "name": "operator",
          "type": "address"
        },
        {
          "indexed": false,
          "internalType": "bool",
          "name": "approved",
          "type": "bool"
        }
      ],
      "name": "ApprovalForAll",
      "type": "event"
    },
    {
      "anonymous": false,
      "inputs": [
        {
          "indexed": true,
          "internalType": "address",
          "name": "previousOwner",
          "type": "address"
        },
        {
          "indexed": true,
          "internalType": "address",
          "name": "newOwner",
          "type": "address"
        }
      ],
      "name": "OwnershipTransferred",
      "type": "event"
    },
    {
      "anonymous": false,
      "inputs": [
        {
          "indexed": false,
          "internalType": "uint256",
          "name": "tokenId",
          "type": "uint256"
        },
        {
          "indexed": false,
          "internalType": "address",
          "name": "minter",
          "type": "address"
        }
      ],
      "name": "TokenMinted",
      "type": "event"
    },
    {
      "anonymous": false,
      "inputs": [
        {
          "indexed": true,
          "internalType": "address",
          "name": "operator",
          "type": "address"
        },
        {
          "indexed": true,
          "internalType": "address",
          "name": "from",
          "type": "address"
        },
        {
          "indexed": true,
          "internalType": "address",
          "name": "to",
          "type": "address"
        },
        {
          "indexed": false,
          "internalType": "uint256[]",
          "name": "ids",
          "type": "uint256[]"
        },
        {
          "indexed": false,
          "internalType": "uint256[]",
          "name": "values",
          "type": "uint256[]"
        }
      ],
      "name": "TransferBatch",
      "type": "event"
    },
    {
      "anonymous": false,
      "inputs": [
        {
          "indexed": true,
          "internalType": "address",
          "name": "operator",
          "type": "address"
        },
        {
          "indexed": true,
          "internalType": "address",
          "name": "from",
          "type": "address"
        },
        {
          "indexed": true,
          "internalType": "address",
          "name": "to",
          "type": "address"
        },
        {
          "indexed": false,
          "internalType": "uint256",
          "name": "id",
          "type": "uint256"
        },
        {
          "indexed": false,
          "internalType": "uint256",
          "name": "value",
          "type": "uint256"
        }
      ],
      "name": "TransferSingle",
      "type": "event"
    },
    {
      "anonymous": false,
      "inputs": [
        {
          "indexed": false,
          "internalType": "string",
          "name": "value",
          "type": "string"
        },
        {
          "indexed": true,
          "internalType": "uint256",
          "name": "id",
          "type": "uint256"
        }
      ],
      "name": "URI",
      "type": "event"
    },
    {
      "inputs": [
        {
          "internalType": "address",
          "name": "account",
          "type": "address"
        },
        {
          "internalType": "uint256",
          "name": "id",
          "type": "uint256"
        }
      ],
      "name": "balanceOf",
      "outputs": [
        {
          "internalType": "uint256",
          "name": "",
          "type": "uint256"
        }
      ],
      "stateMutability": "view",
      "type": "function"
    },
    {
      "inputs": [
        {
          "internalType": "address[]",
          "name": "accounts",
          "type": "address[]"
        },
        {
          "internalType": "uint256[]",
          "name": "ids",
          "type": "uint256[]"
        }
      ],
      "name": "balanceOfBatch",
      "outputs": [
        {
          "internalType": "uint256[]",
          "name": "",
          "type": "uint256[]"
        }
      ],
      "stateMutability": "view",
      "type": "function"
    },
    {
      "inputs": [],
      "name": "collectionIdTracker",
      "outputs": [
        {
          "internalType": "uint256",
          "name": "_value",
          "type": "uint256"
        }
      ],
      "stateMutability": "view",
      "type": "function"
    },
    {
      "inputs": [
        {
          "internalType": "uint256",
          "name": "",
          "type": "uint256"
        }
      ],
      "name": "collections",
      "outputs": [
        {
          "internalType": "string",
          "name": "title",
          "type": "string"
        },
        {
          "internalType": "string",
          "name": "employer",
          "type": "string"
        },
        {
          "internalType": "string",
          "name": "description",
          "type": "string"
        },
        {
          "internalType": "bool",
          "name": "mintingEnabled",
          "type": "bool"
        },
        {
          "internalType": "string",
          "name": "imageUrl",
          "type": "string"
        },
        {
          "internalType": "uint256",
          "name": "closingDate",
          "type": "uint256"
        },
        {
          "internalType": "uint256",
          "name": "royaltyPercentage",
          "type": "uint256"
        }
      ],
      "stateMutability": "view",
      "type": "function"
    },
    {
      "inputs": [],
      "name": "contractURI",
      "outputs": [
        {
          "internalType": "string",
          "name": "",
          "type": "string"
        }
      ],
      "stateMutability": "pure",
      "type": "function"
    },
    {
      "inputs": [
        {
          "internalType": "string",
          "name": "title",
          "type": "string"
        },
        {
          "internalType": "string",
          "name": "employer",
          "type": "string"
        },
        {
          "internalType": "string",
          "name": "description",
          "type": "string"
        },
        {
          "internalType": "bool",
          "name": "mintingEnabled",
          "type": "bool"
        },
        {
          "internalType": "string",
          "name": "imageUrl",
          "type": "string"
        },
        {
          "internalType": "uint256",
          "name": "closingDate",
          "type": "uint256"
        },
        {
          "internalType": "uint256",
          "name": "royaltyPercentage",
          "type": "uint256"
        }
      ],
      "name": "createCollection",
      "outputs": [
        {
          "internalType": "uint256",
          "name": "",
          "type": "uint256"
        }
      ],
      "stateMutability": "nonpayable",
      "type": "function"
    },
    {
      "inputs": [
        {
          "internalType": "uint256",
          "name": "blueprintId",
          "type": "uint256"
        },
        {
          "internalType": "string",
          "name": "metadataURI",
          "type": "string"
        },
        {
          "internalType": "address payable",
          "name": "royaltyRecipient",
          "type": "address"
        }
      ],
      "name": "createShiftNFT",
      "outputs": [
        {
          "internalType": "uint256",
          "name": "",
          "type": "uint256"
        }
      ],
      "stateMutability": "nonpayable",
      "type": "function"
    },
    {
      "inputs": [],
      "name": "developer",
      "outputs": [
        {
          "internalType": "address",
          "name": "",
          "type": "address"
        }
      ],
      "stateMutability": "view",
      "type": "function"
    },
    {
      "inputs": [
        {
          "internalType": "address",
          "name": "account",
          "type": "address"
        },
        {
          "internalType": "address",
          "name": "operator",
          "type": "address"
        }
      ],
      "name": "isApprovedForAll",
      "outputs": [
        {
          "internalType": "bool",
          "name": "",
          "type": "bool"
        }
      ],
      "stateMutability": "view",
      "type": "function"
    },
    {
      "inputs": [
        {
          "internalType": "address",
          "name": "account",
          "type": "address"
        },
        {
          "internalType": "uint256",
          "name": "tokenId",
          "type": "uint256"
        },
        {
          "internalType": "uint256",
          "name": "amount",
          "type": "uint256"
        }
      ],
      "name": "mint",
      "outputs": [],
      "stateMutability": "nonpayable",
      "type": "function"
    },
    {
      "inputs": [],
      "name": "name",
      "outputs": [
        {
          "internalType": "string",
          "name": "",
          "type": "string"
        }
      ],
      "stateMutability": "view",
      "type": "function"
    },
    {
      "inputs": [],
      "name": "owner",
      "outputs": [
        {
          "internalType": "address",
          "name": "",
          "type": "address"
        }
      ],
      "stateMutability": "view",
      "type": "function"
    },
    {
      "inputs": [],
      "name": "renounceOwnership",
      "outputs": [],
      "stateMutability": "nonpayable",
      "type": "function"
    },
    {
      "inputs": [
        {
          "internalType": "uint256",
          "name": "tokenId",
          "type": "uint256"
        },
        {
          "internalType": "uint256",
          "name": "salePrice",
          "type": "uint256"
        }
      ],
      "name": "royaltyInfo",
      "outputs": [
        {
          "internalType": "address",
          "name": "receiver",
          "type": "address"
        },
        {
          "internalType": "uint256",
          "name": "royaltyAmount",
          "type": "uint256"
        }
      ],
      "stateMutability": "view",
      "type": "function"
    },
    {
      "inputs": [
        {
          "internalType": "address",
          "name": "from",
          "type": "address"
        },
        {
          "internalType": "address",
          "name": "to",
          "type": "address"
        },
        {
          "internalType": "uint256[]",
          "name": "ids",
          "type": "uint256[]"
        },
        {
          "internalType": "uint256[]",
          "name": "amounts",
          "type": "uint256[]"
        },
        {
          "internalType": "bytes",
          "name": "data",
          "type": "bytes"
        }
      ],
      "name": "safeBatchTransferFrom",
      "outputs": [],
      "stateMutability": "nonpayable",
      "type": "function"
    },
    {
      "inputs": [
        {
          "internalType": "address",
          "name": "from",
          "type": "address"
        },
        {
          "internalType": "address",
          "name": "to",
          "type": "address"
        },
        {
          "internalType": "uint256",
          "name": "id",
          "type": "uint256"
        },
        {
          "internalType": "uint256",
          "name": "amount",
          "type": "uint256"
        },
        {
          "internalType": "bytes",
          "name": "data",
          "type": "bytes"
        }
      ],
      "name": "safeTransferFrom",
      "outputs": [],
      "stateMutability": "nonpayable",
      "type": "function"
    },
    {
      "inputs": [
        {
          "internalType": "address",
          "name": "operator",
          "type": "address"
        },
        {
          "internalType": "bool",
          "name": "approved",
          "type": "bool"
        }
      ],
      "name": "setApprovalForAll",
      "outputs": [],
      "stateMutability": "nonpayable",
      "type": "function"
    },
    {
      "inputs": [
        {
          "internalType": "address",
          "name": "_developer",
          "type": "address"
        }
      ],
      "name": "setDeveloper",
      "outputs": [],
      "stateMutability": "nonpayable",
      "type": "function"
    },
    {
      "inputs": [
        {
          "internalType": "uint256",
          "name": "collectionId",
          "type": "uint256"
        },
        {
          "internalType": "bool",
          "name": "enabled",
          "type": "bool"
        }
      ],
      "name": "setMintingEnabled",
      "outputs": [],
      "stateMutability": "nonpayable",
      "type": "function"
    },
    {
      "inputs": [
        {
          "internalType": "bytes4",
          "name": "interfaceId",
          "type": "bytes4"
        }
      ],
      "name": "supportsInterface",
      "outputs": [
        {
          "internalType": "bool",
          "name": "",
          "type": "bool"
        }
      ],
      "stateMutability": "view",
      "type": "function"
    },
    {
      "inputs": [],
      "name": "tokenIdTracker",
      "outputs": [
        {
          "internalType": "uint256",
          "name": "_value",
          "type": "uint256"
        }
      ],
      "stateMutability": "view",
      "type": "function"
    },
    {
      "inputs": [
        {
          "internalType": "uint256",
          "name": "",
          "type": "uint256"
        }
      ],
      "name": "tokenMintCount",
      "outputs": [
        {
          "internalType": "uint256",
          "name": "",
          "type": "uint256"
        }
      ],
      "stateMutability": "view",
      "type": "function"
    },
    {
      "inputs": [
        {
          "internalType": "uint256",
          "name": "",
          "type": "uint256"
        }
      ],
      "name": "tokenMinterCount",
      "outputs": [
        {
          "internalType": "uint256",
          "name": "",
          "type": "uint256"
        }
      ],
      "stateMutability": "view",
      "type": "function"
    },
    {
      "inputs": [
        {
          "internalType": "uint256",
          "name": "",
          "type": "uint256"
        }
      ],
      "name": "tokenRoyaltyRecipients",
      "outputs": [
        {
          "internalType": "address payable",
          "name": "",
          "type": "address"
        }
      ],
      "stateMutability": "view",
      "type": "function"
    },
    {
      "inputs": [
        {
          "internalType": "uint256",
          "name": "",
          "type": "uint256"
        }
      ],
      "name": "tokenToCollection",
      "outputs": [
        {
          "internalType": "uint256",
          "name": "",
          "type": "uint256"
        }
      ],
      "stateMutability": "view",
      "type": "function"
    },
    {
      "inputs": [
        {
          "internalType": "address",
          "name": "newOwner",
          "type": "address"
        }
      ],
      "name": "transferOwnership",
      "outputs": [],
      "stateMutability": "nonpayable",
      "type": "function"
    },
    {
      "inputs": [
        {
          "internalType": "uint256",
          "name": "tokenId",
          "type": "uint256"
        }
      ],
      "name": "uri",
      "outputs": [
        {
          "internalType": "string",
          "name": "",
          "type": "string"
        }
      ],
      "stateMutability": "view",
      "type": "function"
    }
  ],
  "bytecode": "0x60c0604052600e60808190526d534849465420434150545552455360901b60a0908152620000319160059190620000d7565b503480156200003f57600080fd5b506040805160208101909152600081526200005a816200006c565b50620000663362000085565b620001ba565b805162000081906002906020840190620000d7565b5050565b600380546001600160a01b038381166001600160a01b0319831681179093556040519116919082907f8be0079c531659141344cd1fd0a4f28419497f9722a3daafe3b4186f6b6457e090600090a35050565b828054620000e5906200017d565b90600052602060002090601f01602090048101928262000109576000855562000154565b82601f106200012457805160ff191683800117855562000154565b8280016001018555821562000154579182015b828111156200015457825182559160200191906001019062000137565b506200016292915062000166565b5090565b5b8082111562000162576000815560010162000167565b600181811c908216806200019257607f821691505b60208210811415620001b457634e487b7160e01b600052602260045260246000fd5b50919050565b61289d80620001ca6000396000f3fe608060405234801561001057600080fd5b50600436106101a85760003560e01c80636f02d25f116100f9578063ca4b208b11610097578063f242432a11610071578063f242432a14610409578063f2fde38b1461041c578063fdbda0ec1461042f578063ff70fa491461045557600080fd5b8063ca4b208b146103b2578063e8a3d485146103c5578063e985e9c5146103cd57600080fd5b80638fc86a7b116100d35780638fc86a7b14610359578063a22cb4651461036c578063b24725071461037f578063c2c36ffb1461039257600080fd5b80636f02d25f1461032d578063715018a6146103405780638da5cb5b1461034857600080fd5b8063195f78ae116101665780632eb2c2d6116101405780632eb2c2d6146102995780633264673f146102ac5780634e1273f4146102ed5780634f27e7871461030d57600080fd5b8063195f78ae1461023d5780631e3b4ac81461025d5780632a55205a1461026757600080fd5b8062fdd58e146101ad57806301ffc9a7146101d357806302bf3d56146101f657806306fdde03146102005780630e89341c14610215578063156e29f614610228575b600080fd5b6101c06101bb366004611c23565b610468565b6040519081526020015b60405180910390f35b6101e66101e1366004611c65565b6104fe565b60405190151581526020016101ca565b6007546101c09081565b610208610550565b6040516101ca9190611ce5565b610208610223366004611cf8565b6105de565b61023b610236366004611d11565b610680565b005b6101c061024b366004611cf8565b600e6020526000908152604090205481565b6006546101c09081565b61027a610275366004611d46565b610881565b604080516001600160a01b0390931683526020830191909152016101ca565b61023b6102a7366004611eb4565b6108cd565b6102d56102ba366004611cf8565b600d602052600090815260409020546001600160a01b031681565b6040516001600160a01b0390911681526020016101ca565b6103006102fb366004611f62565b610919565b6040516101ca919061206a565b6101c061031b366004611cf8565b600a6020526000908152604090205481565b6101c061033b366004612092565b610a43565b61023b610ba7565b6003546001600160a01b03166102d5565b6101c0610367366004612163565b610bbb565b61023b61037a3660046121be565b610d45565b61023b61038d3660046121f3565b610d54565b6101c06103a0366004611cf8565b600b6020526000908152604090205481565b6004546102d5906001600160a01b031681565b610208610e29565b6101e66103db366004612216565b6001600160a01b03918216600090815260016020908152604080832093909416825291909152205460ff1690565b61023b61041736600461224f565b610e77565b61023b61042a3660046122b8565b610ebc565b61044261043d366004611cf8565b610f35565b6040516101ca97969594939291906122d5565b61023b6104633660046122b8565b611198565b60006001600160a01b0383166104d85760405162461bcd60e51b815260206004820152602a60248201527f455243313135353a2061646472657373207a65726f206973206e6f742061207660448201526930b634b21037bbb732b960b11b60648201526084015b60405180910390fd5b506000908152602081815260408083206001600160a01b03949094168352929052205490565b60006001600160e01b03198216636cdb3d1360e11b148061052f57506001600160e01b031982166303a24d0760e21b145b8061054a57506301ffc9a760e01b6001600160e01b03198316145b92915050565b6005805461055d90612341565b80601f016020809104026020016040519081016040528092919081815260200182805461058990612341565b80156105d65780601f106105ab576101008083540402835291602001916105d6565b820191906000526020600020905b8154815290600101906020018083116105b957829003601f168201915b505050505081565b60008181526009602052604090208054606091906105fb90612341565b80601f016020809104026020016040519081016040528092919081815260200182805461062790612341565b80156106745780601f1061064957610100808354040283529160200191610674565b820191906000526020600020905b81548152906001019060200180831161065757829003601f168201915b50505050509050919050565b6000828152600e602090815260408083205480845260089092529091206003015460ff166107045760405162461bcd60e51b815260206004820152602b60248201527f4d696e74696e67206973206e6f7420656e61626c656420666f7220746869732060448201526a31b7b63632b1ba34b7b71760a91b60648201526084016104cf565b600081815260086020526040902060050154610722426103e8612392565b1061078d5760405162461bcd60e51b815260206004820152603560248201527f596f7527726520746f6f206c6174652e204d696e74696e6720666f7220746869604482015274399031b7b63632b1ba34b7b71032bc3834b932b21760591b60648201526084016104cf565b6107a8848484604051806020016040528060008152506111f9565b6000838152600a602052604081208054916107c2836123b1565b90915550506000838152600c602090815260408083206001600160a01b038816845290915290205460ff1661083a576000838152600c602090815260408083206001600160a01b03881684528252808320805460ff19166001179055858352600b9091528120805491610834836123b1565b91905055505b604080518481526001600160a01b03861660208201527f3a5398bda6f1f57d6c96834fa9bf02b5517bdc847d14312015a917ba421c31c9910160405180910390a150505050565b600082815260086020908152604080832060060154600d9092528220548291906001600160a01b03166127106108b78387612392565b6108c191906123cc565b90969095509350505050565b6001600160a01b0385163314806108e957506108e985336103db565b6109055760405162461bcd60e51b81526004016104cf906123ee565b610912858585858561130d565b5050505050565b6060815183511461097e5760405162461bcd60e51b815260206004820152602960248201527f455243313135353a206163636f756e747320616e6420696473206c656e677468604482015268040dad2e6dac2e8c6d60bb1b60648201526084016104cf565b6000835167ffffffffffffffff81111561099a5761099a611d68565b6040519080825280602002602001820160405280156109c3578160200160208202803683370190505b50905060005b8451811015610a3b57610a0e8582815181106109e7576109e761243c565b6020026020010151858381518110610a0157610a0161243c565b6020026020010151610468565b828281518110610a2057610a2061243c565b6020908102919091010152610a34816123b1565b90506109c9565b509392505050565b6000610a576003546001600160a01b031690565b6001600160a01b0316336001600160a01b03161480610a8057506004546001600160a01b031633145b610a9c5760405162461bcd60e51b81526004016104cf90612452565b610aaa600680546001019055565b6000610ab560065490565b90506040518060e001604052808a8152602001898152602001888152602001871515815260200186815260200185815260200184815250600860008381526020019081526020016000206000820151816000019080519060200190610b1b929190611b75565b506020828101518051610b349260018501920190611b75565b5060408201518051610b50916002840191602090910190611b75565b50606082015160038201805460ff191691151591909117905560808201518051610b84916004840191602090910190611b75565b5060a0820151600582015560c09091015160069091015598975050505050505050565b610baf6114ea565b610bb96000611544565b565b6000610bcf6003546001600160a01b031690565b6001600160a01b0316336001600160a01b03161480610bf857506004546001600160a01b031633145b610c145760405162461bcd60e51b81526004016104cf90612452565b610c22600780546001019055565b6000610c2d60075490565b60008181526009602090815260409091208651929350610c51929091870190611b75565b50610c7f610c676003546001600160a01b031690565b826001604051806020016040528060008152506111f9565b6000818152600e60209081526040808320889055600a9091528120805491610ca6836123b1565b90915550506000818152600d6020908152604080832080546001600160a01b0388166001600160a01b0319909116179055600c9091528120600191610cf36003546001600160a01b031690565b6001600160a01b0316815260208082019290925260409081016000908120805460ff191694151594909417909355838352600b9091528120805491610d37836123b1565b909155509095945050505050565b610d50338383611596565b5050565b6003546001600160a01b0316331480610d7757506004546001600160a01b031633145b610d935760405162461bcd60e51b81526004016104cf90612452565b60008281526008602052604090206003015460ff1615158115151415610e065760405162461bcd60e51b815260206004820152602260248201527f416c72656164792073657420746f207468652070726f76696465642076616c75604482015261329760f11b60648201526084016104cf565b600091825260086020526040909120600301805460ff1916911515919091179055565b6060600060405180610100016040528060dd815260200161278b60dd91399050610e5281611677565b604051602001610e629190612482565b60405160208183030381529060405291505090565b6001600160a01b038516331480610e935750610e9385336103db565b610eaf5760405162461bcd60e51b81526004016104cf906123ee565b61091285858585856117cb565b610ec46114ea565b6001600160a01b038116610f295760405162461bcd60e51b815260206004820152602660248201527f4f776e61626c653a206e6577206f776e657220697320746865207a65726f206160448201526564647265737360d01b60648201526084016104cf565b610f3281611544565b50565b600860205260009081526040902080548190610f5090612341565b80601f0160208091040260200160405190810160405280929190818152602001828054610f7c90612341565b8015610fc95780601f10610f9e57610100808354040283529160200191610fc9565b820191906000526020600020905b815481529060010190602001808311610fac57829003601f168201915b505050505090806001018054610fde90612341565b80601f016020809104026020016040519081016040528092919081815260200182805461100a90612341565b80156110575780601f1061102c57610100808354040283529160200191611057565b820191906000526020600020905b81548152906001019060200180831161103a57829003601f168201915b50505050509080600201805461106c90612341565b80601f016020809104026020016040519081016040528092919081815260200182805461109890612341565b80156110e55780601f106110ba576101008083540402835291602001916110e5565b820191906000526020600020905b8154815290600101906020018083116110c857829003601f168201915b5050506003840154600485018054949560ff90921694919350915061110990612341565b80601f016020809104026020016040519081016040528092919081815260200182805461113590612341565b80156111825780601f1061115757610100808354040283529160200191611182565b820191906000526020600020905b81548152906001019060200180831161116557829003601f168201915b5050505050908060050154908060060154905087565b6003546001600160a01b03163314806111bb57506004546001600160a01b031633145b6111d75760405162461bcd60e51b81526004016104cf90612452565b600480546001600160a01b0319166001600160a01b0392909216919091179055565b6001600160a01b0384166112595760405162461bcd60e51b815260206004820152602160248201527f455243313135353a206d696e7420746f20746865207a65726f206164647265736044820152607360f81b60648201526084016104cf565b336000611265856118f5565b90506000611272856118f5565b90506000868152602081815260408083206001600160a01b038b168452909152812080548792906112a49084906124c7565b909155505060408051878152602081018790526001600160a01b03808a1692600092918716917fc3d58168c5ae7397731d063d5bbf3d657854427343f4c083240f7aacaa2d0f62910160405180910390a461130483600089898989611940565b50505050505050565b815183511461136f5760405162461bcd60e51b815260206004820152602860248201527f455243313135353a2069647320616e6420616d6f756e7473206c656e677468206044820152670dad2e6dac2e8c6d60c31b60648201526084016104cf565b6001600160a01b0384166113955760405162461bcd60e51b81526004016104cf906124df565b3360005b845181101561147c5760008582815181106113b6576113b661243c565b6020026020010151905060008583815181106113d4576113d461243c565b602090810291909101810151600084815280835260408082206001600160a01b038e1683529093529190912054909150818110156114245760405162461bcd60e51b81526004016104cf90612524565b6000838152602081815260408083206001600160a01b038e8116855292528083208585039055908b168252812080548492906114619084906124c7565b9250508190555050505080611475906123b1565b9050611399565b50846001600160a01b0316866001600160a01b0316826001600160a01b03167f4a39dc06d4c0dbc64b70af90fd698a233a518aa5d07e595d983b8c0526c8f7fb87876040516114cc92919061256e565b60405180910390a46114e2818787878787611aab565b505050505050565b6003546001600160a01b03163314610bb95760405162461bcd60e51b815260206004820181905260248201527f4f776e61626c653a2063616c6c6572206973206e6f7420746865206f776e657260448201526064016104cf565b600380546001600160a01b038381166001600160a01b0319831681179093556040519116919082907f8be0079c531659141344cd1fd0a4f28419497f9722a3daafe3b4186f6b6457e090600090a35050565b816001600160a01b0316836001600160a01b0316141561160a5760405162461bcd60e51b815260206004820152602960248201527f455243313135353a2073657474696e6720617070726f76616c20737461747573604482015268103337b91039b2b63360b91b60648201526084016104cf565b6001600160a01b03838116600081815260016020908152604080832094871680845294825291829020805460ff191686151590811790915591519182527f17307eab39ab6107e8899845ad3d59bd9653f200f220920489ca2b5937696c31910160405180910390a3505050565b606081516000141561169757505060408051602081019091526000815290565b600060405180606001604052806040815260200161274b60409139905060006003845160026116c691906124c7565b6116d091906123cc565b6116db906004612392565b67ffffffffffffffff8111156116f3576116f3611d68565b6040519080825280601f01601f19166020018201604052801561171d576020820181803683370190505b509050600182016020820185865187015b80821015611789576003820191508151603f8160121c168501518453600184019350603f81600c1c168501518453600184019350603f8160061c168501518453600184019350603f811685015184535060018301925061172e565b50506003865106600181146117a557600281146117b8576117c0565b603d6001830353603d60028303536117c0565b603d60018303535b509195945050505050565b6001600160a01b0384166117f15760405162461bcd60e51b81526004016104cf906124df565b3360006117fd856118f5565b9050600061180a856118f5565b90506000868152602081815260408083206001600160a01b038c1684529091529020548581101561184d5760405162461bcd60e51b81526004016104cf90612524565b6000878152602081815260408083206001600160a01b038d8116855292528083208985039055908a1682528120805488929061188a9084906124c7565b909155505060408051888152602081018890526001600160a01b03808b16928c821692918816917fc3d58168c5ae7397731d063d5bbf3d657854427343f4c083240f7aacaa2d0f62910160405180910390a46118ea848a8a8a8a8a611940565b505050505050505050565b6040805160018082528183019092526060916000919060208083019080368337019050509050828160008151811061192f5761192f61243c565b602090810291909101015292915050565b6001600160a01b0384163b156114e25760405163f23a6e6160e01b81526001600160a01b0385169063f23a6e6190611984908990899088908890889060040161259c565b602060405180830381600087803b15801561199e57600080fd5b505af19250505080156119ce575060408051601f3d908101601f191682019092526119cb918101906125e1565b60015b611a7b576119da6125fe565b806308c379a01415611a1457506119ef61261a565b806119fa5750611a16565b8060405162461bcd60e51b81526004016104cf9190611ce5565b505b60405162461bcd60e51b815260206004820152603460248201527f455243313135353a207472616e7366657220746f206e6f6e2d455243313135356044820152732932b1b2b4bb32b91034b6b83632b6b2b73a32b960611b60648201526084016104cf565b6001600160e01b0319811663f23a6e6160e01b146113045760405162461bcd60e51b81526004016104cf906126a4565b6001600160a01b0384163b156114e25760405163bc197c8160e01b81526001600160a01b0385169063bc197c8190611aef90899089908890889088906004016126ec565b602060405180830381600087803b158015611b0957600080fd5b505af1925050508015611b39575060408051601f3d908101601f19168201909252611b36918101906125e1565b60015b611b45576119da6125fe565b6001600160e01b0319811663bc197c8160e01b146113045760405162461bcd60e51b81526004016104cf906126a4565b828054611b8190612341565b90600052602060002090601f016020900481019282611ba35760008555611be9565b82601f10611bbc57805160ff1916838001178555611be9565b82800160010185558215611be9579182015b82811115611be9578251825591602001919060010190611bce565b50611bf5929150611bf9565b5090565b5b80821115611bf55760008155600101611bfa565b6001600160a01b0381168114610f3257600080fd5b60008060408385031215611c3657600080fd5b8235611c4181611c0e565b946020939093013593505050565b6001600160e01b031981168114610f3257600080fd5b600060208284031215611c7757600080fd5b8135611c8281611c4f565b9392505050565b60005b83811015611ca4578181015183820152602001611c8c565b83811115611cb3576000848401525b50505050565b60008151808452611cd1816020860160208601611c89565b601f01601f19169290920160200192915050565b602081526000611c826020830184611cb9565b600060208284031215611d0a57600080fd5b5035919050565b600080600060608486031215611d2657600080fd5b8335611d3181611c0e565b95602085013595506040909401359392505050565b60008060408385031215611d5957600080fd5b50508035926020909101359150565b634e487b7160e01b600052604160045260246000fd5b601f8201601f1916810167ffffffffffffffff81118282101715611da457611da4611d68565b6040525050565b600067ffffffffffffffff821115611dc557611dc5611d68565b5060051b60200190565b600082601f830112611de057600080fd5b81356020611ded82611dab565b604051611dfa8282611d7e565b83815260059390931b8501820192828101915086841115611e1a57600080fd5b8286015b84811015611e355780358352918301918301611e1e565b509695505050505050565b600082601f830112611e5157600080fd5b813567ffffffffffffffff811115611e6b57611e6b611d68565b604051611e82601f8301601f191660200182611d7e565b818152846020838601011115611e9757600080fd5b816020850160208301376000918101602001919091529392505050565b600080600080600060a08688031215611ecc57600080fd5b8535611ed781611c0e565b94506020860135611ee781611c0e565b9350604086013567ffffffffffffffff80821115611f0457600080fd5b611f1089838a01611dcf565b94506060880135915080821115611f2657600080fd5b611f3289838a01611dcf565b93506080880135915080821115611f4857600080fd5b50611f5588828901611e40565b9150509295509295909350565b60008060408385031215611f7557600080fd5b823567ffffffffffffffff80821115611f8d57600080fd5b818501915085601f830112611fa157600080fd5b81356020611fae82611dab565b604051611fbb8282611d7e565b83815260059390931b8501820192828101915089841115611fdb57600080fd5b948201945b83861015612002578535611ff381611c0e565b82529482019490820190611fe0565b9650508601359250508082111561201857600080fd5b5061202585828601611dcf565b9150509250929050565b600081518084526020808501945080840160005b8381101561205f57815187529582019590820190600101612043565b509495945050505050565b602081526000611c82602083018461202f565b8035801515811461208d57600080fd5b919050565b600080600080600080600060e0888a0312156120ad57600080fd5b873567ffffffffffffffff808211156120c557600080fd5b6120d18b838c01611e40565b985060208a01359150808211156120e757600080fd5b6120f38b838c01611e40565b975060408a013591508082111561210957600080fd5b6121158b838c01611e40565b965061212360608b0161207d565b955060808a013591508082111561213957600080fd5b506121468a828b01611e40565b93505060a0880135915060c0880135905092959891949750929550565b60008060006060848603121561217857600080fd5b83359250602084013567ffffffffffffffff81111561219657600080fd5b6121a286828701611e40565b92505060408401356121b381611c0e565b809150509250925092565b600080604083850312156121d157600080fd5b82356121dc81611c0e565b91506121ea6020840161207d565b90509250929050565b6000806040838503121561220657600080fd5b823591506121ea6020840161207d565b6000806040838503121561222957600080fd5b823561223481611c0e565b9150602083013561224481611c0e565b809150509250929050565b600080600080600060a0868803121561226757600080fd5b853561227281611c0e565b9450602086013561228281611c0e565b93506040860135925060608601359150608086013567ffffffffffffffff8111156122ac57600080fd5b611f5588828901611e40565b6000602082840312156122ca57600080fd5b8135611c8281611c0e565b60e0815260006122e860e083018a611cb9565b82810360208401526122fa818a611cb9565b9050828103604084015261230e8189611cb9565b90508615156060840152828103608084015261232a8187611cb9565b60a0840195909552505060c0015295945050505050565b600181811c9082168061235557607f821691505b6020821081141561237657634e487b7160e01b600052602260045260246000fd5b50919050565b634e487b7160e01b600052601160045260246000fd5b60008160001904831182151516156123ac576123ac61237c565b500290565b60006000198214156123c5576123c561237c565b5060010190565b6000826123e957634e487b7160e01b600052601260045260246000fd5b500490565b6020808252602e908201527f455243313135353a2063616c6c6572206973206e6f7420746f6b656e206f776e60408201526d195c881bdc88185c1c1c9bdd995960921b606082015260800190565b634e487b7160e01b600052603260045260246000fd5b6020808252601690820152752737ba1037bbb732b91037b9103232bb32b637b832b960511b604082015260600190565b7f646174613a6170706c69636174696f6e2f6a736f6e3b6261736536342c0000008152600082516124ba81601d850160208701611c89565b91909101601d0192915050565b600082198211156124da576124da61237c565b500190565b60208082526025908201527f455243313135353a207472616e7366657220746f20746865207a65726f206164604082015264647265737360d81b606082015260800190565b6020808252602a908201527f455243313135353a20696e73756666696369656e742062616c616e636520666f60408201526939103a3930b739b332b960b11b606082015260800190565b604081526000612581604083018561202f565b8281036020840152612593818561202f565b95945050505050565b6001600160a01b03868116825285166020820152604081018490526060810183905260a0608082018190526000906125d690830184611cb9565b979650505050505050565b6000602082840312156125f357600080fd5b8151611c8281611c4f565b600060033d11156126175760046000803e5060005160e01c5b90565b600060443d10156126285790565b6040516003193d81016004833e81513d67ffffffffffffffff816024840111818411171561265857505050505090565b82850191508151818111156126705750505050505090565b843d870101602082850101111561268a5750505050505090565b61269960208286010187611d7e565b509095945050505050565b60208082526028908201527f455243313135353a204552433131353552656365697665722072656a656374656040820152676420746f6b656e7360c01b606082015260800190565b6001600160a01b0386811682528516602082015260a0604082018190526000906127189083018661202f565b828103606084015261272a818661202f565b9050828103608084015261273e8185611cb9565b9897505050505050505056fe4142434445464748494a4b4c4d4e4f505152535455565758595a6162636465666768696a6b6c6d6e6f707172737475767778797a303132333435363738392b2f7b226e616d65223a20225348494654204341505455524553222c226465736372697074696f6e223a2022436c61696d20616e206f66662d636861696e2070726f6f662d6f662d776f726b204e465420617274776f726b20636170747572696e6720746865206c61626f7220706572666f726d6564206c69766520627920616e2061637475616c20776f726b65722c207369676e656420616e642074696d657374616d70656420627920534849465420696e207468652063697479207468652049524c20706572666f726d616e63652074616b657320706c6163652e227da26469706673582212204effbd3f80182addec9522756526fc6171fe5fe0c2e2f9f2e31e343b069b056b64736f6c63430008090033",
  "linkReferences": {},
  "deployedLinkReferences": {}
}