{
  "_format": "hh-sol-artifact-1",
  "contractName": "SHIFTCAPTURES",
  "sourceName": "contracts/SHIFTCAPTURES.sol",
  "abi": [
    {
      "inputs": [],
      "stateMutability": "nonpayable",
      "type": "constructor"
    },
    {
      "anonymous": false,
      "inputs": [
        {
          "indexed": true,
          "internalType": "address",
          "name": "account",
          "type": "address"
        },
        {
          "indexed": true,
          "internalType": "address",
          "name": "operator",
          "type": "address"
        },
        {
          "indexed": false,
          "internalType": "bool",
          "name": "approved",
          "type": "bool"
        }
      ],
      "name": "ApprovalForAll",
      "type": "event"
    },
    {
      "anonymous": false,
      "inputs": [
        {
          "indexed": true,
          "internalType": "address",
          "name": "previousOwner",
          "type": "address"
        },
        {
          "indexed": true,
          "internalType": "address",
          "name": "newOwner",
          "type": "address"
        }
      ],
      "name": "OwnershipTransferred",
      "type": "event"
    },
    {
      "anonymous": false,
      "inputs": [
        {
          "indexed": false,
          "internalType": "uint256",
          "name": "tokenId",
          "type": "uint256"
        },
        {
          "indexed": false,
          "internalType": "address",
          "name": "minter",
          "type": "address"
        }
      ],
      "name": "TokenMinted",
      "type": "event"
    },
    {
      "anonymous": false,
      "inputs": [
        {
          "indexed": true,
          "internalType": "address",
          "name": "operator",
          "type": "address"
        },
        {
          "indexed": true,
          "internalType": "address",
          "name": "from",
          "type": "address"
        },
        {
          "indexed": true,
          "internalType": "address",
          "name": "to",
          "type": "address"
        },
        {
          "indexed": false,
          "internalType": "uint256[]",
          "name": "ids",
          "type": "uint256[]"
        },
        {
          "indexed": false,
          "internalType": "uint256[]",
          "name": "values",
          "type": "uint256[]"
        }
      ],
      "name": "TransferBatch",
      "type": "event"
    },
    {
      "anonymous": false,
      "inputs": [
        {
          "indexed": true,
          "internalType": "address",
          "name": "operator",
          "type": "address"
        },
        {
          "indexed": true,
          "internalType": "address",
          "name": "from",
          "type": "address"
        },
        {
          "indexed": true,
          "internalType": "address",
          "name": "to",
          "type": "address"
        },
        {
          "indexed": false,
          "internalType": "uint256",
          "name": "id",
          "type": "uint256"
        },
        {
          "indexed": false,
          "internalType": "uint256",
          "name": "value",
          "type": "uint256"
        }
      ],
      "name": "TransferSingle",
      "type": "event"
    },
    {
      "anonymous": false,
      "inputs": [
        {
          "indexed": false,
          "internalType": "string",
          "name": "value",
          "type": "string"
        },
        {
          "indexed": true,
          "internalType": "uint256",
          "name": "id",
          "type": "uint256"
        }
      ],
      "name": "URI",
      "type": "event"
    },
    {
      "inputs": [
        {
          "internalType": "address",
          "name": "account",
          "type": "address"
        },
        {
          "internalType": "uint256",
          "name": "id",
          "type": "uint256"
        }
      ],
      "name": "balanceOf",
      "outputs": [
        {
          "internalType": "uint256",
          "name": "",
          "type": "uint256"
        }
      ],
      "stateMutability": "view",
      "type": "function"
    },
    {
      "inputs": [
        {
          "internalType": "address[]",
          "name": "accounts",
          "type": "address[]"
        },
        {
          "internalType": "uint256[]",
          "name": "ids",
          "type": "uint256[]"
        }
      ],
      "name": "balanceOfBatch",
      "outputs": [
        {
          "internalType": "uint256[]",
          "name": "",
          "type": "uint256[]"
        }
      ],
      "stateMutability": "view",
      "type": "function"
    },
    {
      "inputs": [],
      "name": "collectionIdTracker",
      "outputs": [
        {
          "internalType": "uint256",
          "name": "_value",
          "type": "uint256"
        }
      ],
      "stateMutability": "view",
      "type": "function"
    },
    {
      "inputs": [
        {
          "internalType": "uint256",
          "name": "",
          "type": "uint256"
        }
      ],
      "name": "collections",
      "outputs": [
        {
          "internalType": "string",
          "name": "title",
          "type": "string"
        },
        {
          "internalType": "string",
          "name": "employer",
          "type": "string"
        },
        {
          "internalType": "bool",
          "name": "mintingEnabled",
          "type": "bool"
        },
        {
          "internalType": "uint256",
          "name": "closingDate",
          "type": "uint256"
        },
        {
          "internalType": "uint256",
          "name": "royaltyPercentage",
          "type": "uint256"
        },
        {
          "internalType": "string",
          "name": "place",
          "type": "string"
        }
      ],
      "stateMutability": "view",
      "type": "function"
    },
    {
      "inputs": [],
      "name": "contractURI",
      "outputs": [
        {
          "internalType": "string",
          "name": "",
          "type": "string"
        }
      ],
      "stateMutability": "pure",
      "type": "function"
    },
    {
      "inputs": [
        {
          "internalType": "string",
          "name": "title",
          "type": "string"
        },
        {
          "internalType": "string",
          "name": "employer",
          "type": "string"
        },
        {
          "internalType": "bool",
          "name": "mintingEnabled",
          "type": "bool"
        },
        {
          "internalType": "uint256",
          "name": "closingDate",
          "type": "uint256"
        },
        {
          "internalType": "uint256",
          "name": "royaltyPercentage",
          "type": "uint256"
        },
        {
          "internalType": "string",
          "name": "place",
          "type": "string"
        }
      ],
      "name": "createCollection",
      "outputs": [
        {
          "internalType": "uint256",
          "name": "",
          "type": "uint256"
        }
      ],
      "stateMutability": "nonpayable",
      "type": "function"
    },
    {
      "inputs": [
        {
          "internalType": "uint256",
          "name": "blueprintId",
          "type": "uint256"
        },
        {
          "internalType": "string",
          "name": "metadataURI",
          "type": "string"
        },
        {
          "internalType": "address payable",
          "name": "royaltyRecipient",
          "type": "address"
        }
      ],
      "name": "createShiftNFT",
      "outputs": [
        {
          "internalType": "uint256",
          "name": "",
          "type": "uint256"
        }
      ],
      "stateMutability": "nonpayable",
      "type": "function"
    },
    {
      "inputs": [],
      "name": "developer",
      "outputs": [
        {
          "internalType": "address",
          "name": "",
          "type": "address"
        }
      ],
      "stateMutability": "view",
      "type": "function"
    },
    {
      "inputs": [
        {
          "internalType": "address",
          "name": "account",
          "type": "address"
        },
        {
          "internalType": "address",
          "name": "operator",
          "type": "address"
        }
      ],
      "name": "isApprovedForAll",
      "outputs": [
        {
          "internalType": "bool",
          "name": "",
          "type": "bool"
        }
      ],
      "stateMutability": "view",
      "type": "function"
    },
    {
      "inputs": [
        {
          "internalType": "address",
          "name": "account",
          "type": "address"
        },
        {
          "internalType": "uint256",
          "name": "tokenId",
          "type": "uint256"
        },
        {
          "internalType": "uint256",
          "name": "amount",
          "type": "uint256"
        }
      ],
      "name": "mint",
      "outputs": [],
      "stateMutability": "nonpayable",
      "type": "function"
    },
    {
      "inputs": [],
      "name": "name",
      "outputs": [
        {
          "internalType": "string",
          "name": "",
          "type": "string"
        }
      ],
      "stateMutability": "view",
      "type": "function"
    },
    {
      "inputs": [],
      "name": "owner",
      "outputs": [
        {
          "internalType": "address",
          "name": "",
          "type": "address"
        }
      ],
      "stateMutability": "view",
      "type": "function"
    },
    {
      "inputs": [],
      "name": "renounceOwnership",
      "outputs": [],
      "stateMutability": "nonpayable",
      "type": "function"
    },
    {
      "inputs": [
        {
          "internalType": "uint256",
          "name": "tokenId",
          "type": "uint256"
        },
        {
          "internalType": "uint256",
          "name": "salePrice",
          "type": "uint256"
        }
      ],
      "name": "royaltyInfo",
      "outputs": [
        {
          "internalType": "address",
          "name": "receiver",
          "type": "address"
        },
        {
          "internalType": "uint256",
          "name": "royaltyAmount",
          "type": "uint256"
        }
      ],
      "stateMutability": "view",
      "type": "function"
    },
    {
      "inputs": [
        {
          "internalType": "address",
          "name": "from",
          "type": "address"
        },
        {
          "internalType": "address",
          "name": "to",
          "type": "address"
        },
        {
          "internalType": "uint256[]",
          "name": "ids",
          "type": "uint256[]"
        },
        {
          "internalType": "uint256[]",
          "name": "amounts",
          "type": "uint256[]"
        },
        {
          "internalType": "bytes",
          "name": "data",
          "type": "bytes"
        }
      ],
      "name": "safeBatchTransferFrom",
      "outputs": [],
      "stateMutability": "nonpayable",
      "type": "function"
    },
    {
      "inputs": [
        {
          "internalType": "address",
          "name": "from",
          "type": "address"
        },
        {
          "internalType": "address",
          "name": "to",
          "type": "address"
        },
        {
          "internalType": "uint256",
          "name": "id",
          "type": "uint256"
        },
        {
          "internalType": "uint256",
          "name": "amount",
          "type": "uint256"
        },
        {
          "internalType": "bytes",
          "name": "data",
          "type": "bytes"
        }
      ],
      "name": "safeTransferFrom",
      "outputs": [],
      "stateMutability": "nonpayable",
      "type": "function"
    },
    {
      "inputs": [
        {
          "internalType": "address",
          "name": "operator",
          "type": "address"
        },
        {
          "internalType": "bool",
          "name": "approved",
          "type": "bool"
        }
      ],
      "name": "setApprovalForAll",
      "outputs": [],
      "stateMutability": "nonpayable",
      "type": "function"
    },
    {
      "inputs": [
        {
          "internalType": "address",
          "name": "_developer",
          "type": "address"
        }
      ],
      "name": "setDeveloper",
      "outputs": [],
      "stateMutability": "nonpayable",
      "type": "function"
    },
    {
      "inputs": [
        {
          "internalType": "uint256",
          "name": "collectionId",
          "type": "uint256"
        },
        {
          "internalType": "bool",
          "name": "enabled",
          "type": "bool"
        }
      ],
      "name": "setMintingEnabled",
      "outputs": [],
      "stateMutability": "nonpayable",
      "type": "function"
    },
    {
      "inputs": [
        {
          "internalType": "uint256",
          "name": "tokenId",
          "type": "uint256"
        },
        {
          "internalType": "string",
          "name": "newURI",
          "type": "string"
        }
      ],
      "name": "setTokenURI",
      "outputs": [],
      "stateMutability": "nonpayable",
      "type": "function"
    },
    {
      "inputs": [
        {
          "internalType": "bytes4",
          "name": "interfaceId",
          "type": "bytes4"
        }
      ],
      "name": "supportsInterface",
      "outputs": [
        {
          "internalType": "bool",
          "name": "",
          "type": "bool"
        }
      ],
      "stateMutability": "view",
      "type": "function"
    },
    {
      "inputs": [],
      "name": "tokenIdTracker",
      "outputs": [
        {
          "internalType": "uint256",
          "name": "_value",
          "type": "uint256"
        }
      ],
      "stateMutability": "view",
      "type": "function"
    },
    {
      "inputs": [
        {
          "internalType": "uint256",
          "name": "",
          "type": "uint256"
        }
      ],
      "name": "tokenMintCount",
      "outputs": [
        {
          "internalType": "uint256",
          "name": "",
          "type": "uint256"
        }
      ],
      "stateMutability": "view",
      "type": "function"
    },
    {
      "inputs": [
        {
          "internalType": "uint256",
          "name": "",
          "type": "uint256"
        }
      ],
      "name": "tokenMinterCount",
      "outputs": [
        {
          "internalType": "uint256",
          "name": "",
          "type": "uint256"
        }
      ],
      "stateMutability": "view",
      "type": "function"
    },
    {
      "inputs": [
        {
          "internalType": "uint256",
          "name": "",
          "type": "uint256"
        }
      ],
      "name": "tokenRoyaltyRecipients",
      "outputs": [
        {
          "internalType": "address payable",
          "name": "",
          "type": "address"
        }
      ],
      "stateMutability": "view",
      "type": "function"
    },
    {
      "inputs": [
        {
          "internalType": "uint256",
          "name": "",
          "type": "uint256"
        }
      ],
      "name": "tokenToCollection",
      "outputs": [
        {
          "internalType": "uint256",
          "name": "",
          "type": "uint256"
        }
      ],
      "stateMutability": "view",
      "type": "function"
    },
    {
      "inputs": [
        {
          "internalType": "address",
          "name": "newOwner",
          "type": "address"
        }
      ],
      "name": "transferOwnership",
      "outputs": [],
      "stateMutability": "nonpayable",
      "type": "function"
    },
    {
      "inputs": [
        {
          "internalType": "uint256",
          "name": "tokenId",
          "type": "uint256"
        }
      ],
      "name": "uri",
      "outputs": [
        {
          "internalType": "string",
          "name": "",
          "type": "string"
        }
      ],
      "stateMutability": "view",
      "type": "function"
    }
  ],
  "bytecode": "0x60c0604052600e60808190526d534849465420434150545552455360901b60a0908152620000319160059190620000fd565b503480156200003f57600080fd5b506040805160208101909152600081526200005a8162000092565b506200006633620000ab565b600480546001600160a01b031916734a7d0d9d2ee22bb6efe1847cff07da4c5f2e3f22179055620001e0565b8051620000a7906002906020840190620000fd565b5050565b600380546001600160a01b038381166001600160a01b0319831681179093556040519116919082907f8be0079c531659141344cd1fd0a4f28419497f9722a3daafe3b4186f6b6457e090600090a35050565b8280546200010b90620001a3565b90600052602060002090601f0160209004810192826200012f57600085556200017a565b82601f106200014a57805160ff19168380011785556200017a565b828001600101855582156200017a579182015b828111156200017a5782518255916020019190600101906200015d565b50620001889291506200018c565b5090565b5b808211156200018857600081556001016200018d565b600181811c90821680620001b857607f821691505b60208210811415620001da57634e487b7160e01b600052602260045260246000fd5b50919050565b61291e80620001f06000396000f3fe608060405234801561001057600080fd5b50600436106101c35760003560e01c80634f27e787116100f9578063ca4b208b11610097578063f242432a11610071578063f242432a14610437578063f2fde38b1461044a578063fdbda0ec1461045d578063ff70fa491461048257600080fd5b8063ca4b208b146103e0578063e8a3d485146103f3578063e985e9c5146103fb57600080fd5b80638fc86a7b116100d35780638fc86a7b14610387578063a22cb4651461039a578063b2472507146103ad578063c2c36ffb146103c057600080fd5b80634f27e7871461034e578063715018a61461036e5780638da5cb5b1461037657600080fd5b8063195f78ae116101665780632a55205a116101405780632a55205a146102a85780632eb2c2d6146102da5780633264673f146102ed5780634e1273f41461032e57600080fd5b8063195f78ae1461026b5780631e3b4ac81461028b578063241b40711461029557600080fd5b806306fdde03116101a257806306fdde031461021b5780630e89341c14610230578063156e29f614610243578063162094c41461025857600080fd5b8062fdd58e146101c857806301ffc9a7146101ee57806302bf3d5614610211575b600080fd5b6101db6101d6366004611c9f565b610495565b6040519081526020015b60405180910390f35b6102016101fc366004611ce1565b61052b565b60405190151581526020016101e5565b6007546101db9081565b61022361057d565b6040516101e59190611d61565b61022361023e366004611d74565b61060b565b610256610251366004611d8d565b6106ad565b005b610256610266366004611e79565b6108ae565b6101db610279366004611d74565b600e6020526000908152604090205481565b6006546101db9081565b6101db6102a3366004611ed5565b610979565b6102bb6102b6366004611f80565b610ab2565b604080516001600160a01b0390931683526020830191909152016101e5565b6102566102e8366004612037565b610afe565b6103166102fb366004611d74565b600d602052600090815260409020546001600160a01b031681565b6040516001600160a01b0390911681526020016101e5565b61034161033c3660046120e5565b610b4a565b6040516101e591906121e3565b6101db61035c366004611d74565b600a6020526000908152604090205481565b610256610c74565b6003546001600160a01b0316610316565b6101db6103953660046121f6565b610c88565b6102566103a8366004612251565b610e07565b6102566103bb366004612286565b610e16565b6101db6103ce366004611d74565b600b6020526000908152604090205481565b600454610316906001600160a01b031681565b610223610eeb565b6102016104093660046122a9565b6001600160a01b03918216600090815260016020908152604080832093909416825291909152205460ff1690565b6102566104453660046122e2565b610f39565b61025661045836600461234b565b610f7e565b61047061046b366004611d74565b610fc9565b6040516101e596959493929190612368565b61025661049036600461234b565b61119e565b60006001600160a01b0383166105055760405162461bcd60e51b815260206004820152602a60248201527f455243313135353a2061646472657373207a65726f206973206e6f742061207660448201526930b634b21037bbb732b960b11b60648201526084015b60405180910390fd5b506000908152602081815260408083206001600160a01b03949094168352929052205490565b60006001600160e01b03198216636cdb3d1360e11b148061055c57506001600160e01b031982166303a24d0760e21b145b8061057757506301ffc9a760e01b6001600160e01b03198316145b92915050565b6005805461058a906123c2565b80601f01602080910402602001604051908101604052809291908181526020018280546105b6906123c2565b80156106035780601f106105d857610100808354040283529160200191610603565b820191906000526020600020905b8154815290600101906020018083116105e657829003601f168201915b505050505081565b6000818152600960205260409020805460609190610628906123c2565b80601f0160208091040260200160405190810160405280929190818152602001828054610654906123c2565b80156106a15780601f10610676576101008083540402835291602001916106a1565b820191906000526020600020905b81548152906001019060200180831161068457829003601f168201915b50505050509050919050565b6000828152600e602090815260408083205480845260089092529091206002015460ff166107315760405162461bcd60e51b815260206004820152602b60248201527f4d696e74696e67206973206e6f7420656e61626c656420666f7220746869732060448201526a31b7b63632b1ba34b7b71760a91b60648201526084016104fc565b60008181526008602052604090206003015461074f426103e8612413565b106107ba5760405162461bcd60e51b815260206004820152603560248201527f596f7527726520746f6f206c6174652e204d696e74696e6720666f7220746869604482015274399031b7b63632b1ba34b7b71032bc3834b932b21760591b60648201526084016104fc565b6107d5848484604051806020016040528060008152506111ff565b6000838152600a602052604081208054916107ef83612432565b90915550506000838152600c602090815260408083206001600160a01b038816845290915290205460ff16610867576000838152600c602090815260408083206001600160a01b03881684528252808320805460ff19166001179055858352600b909152812080549161086183612432565b91905055505b604080518481526001600160a01b03861660208201527f3a5398bda6f1f57d6c96834fa9bf02b5517bdc847d14312015a917ba421c31c9910160405180910390a150505050565b6003546001600160a01b03163314806108d157506004546001600160a01b031633145b6108ed5760405162461bcd60e51b81526004016104fc9061244d565b60008281526009602052604081208054610906906123c2565b9050116109555760405162461bcd60e51b815260206004820152601760248201527f546f6b656e20494420646f6573206e6f7420657869737400000000000000000060448201526064016104fc565b6000828152600960209081526040909120825161097492840190611bf1565b505050565b600061098d6003546001600160a01b031690565b6001600160a01b0316336001600160a01b031614806109b657506004546001600160a01b031633145b6109d25760405162461bcd60e51b81526004016104fc9061244d565b6109e0600680546001019055565b60006109eb60065490565b6040805160c0810182528a815260208082018b905289151582840152606082018990526080820188905260a08201879052600084815260088252929092208151805194955091939092610a42928492910190611bf1565b506020828101518051610a5b9260018501920190611bf1565b50604082015160028201805460ff1916911515919091179055606082015160038201556080820151600482015560a08201518051610aa3916005840191602090910190611bf1565b50919998505050505050505050565b600082815260086020908152604080832060040154600d9092528220548291906001600160a01b0316612710610ae88387612413565b610af2919061247d565b90969095509350505050565b6001600160a01b038516331480610b1a5750610b1a8533610409565b610b365760405162461bcd60e51b81526004016104fc9061249f565b610b438585858585611313565b5050505050565b60608151835114610baf5760405162461bcd60e51b815260206004820152602960248201527f455243313135353a206163636f756e747320616e6420696473206c656e677468604482015268040dad2e6dac2e8c6d60bb1b60648201526084016104fc565b6000835167ffffffffffffffff811115610bcb57610bcb611dc2565b604051908082528060200260200182016040528015610bf4578160200160208202803683370190505b50905060005b8451811015610c6c57610c3f858281518110610c1857610c186124ed565b6020026020010151858381518110610c3257610c326124ed565b6020026020010151610495565b828281518110610c5157610c516124ed565b6020908102919091010152610c6581612432565b9050610bfa565b509392505050565b610c7c6114f0565b610c86600061154a565b565b6000610c9c6003546001600160a01b031690565b6001600160a01b0316336001600160a01b03161480610cc557506004546001600160a01b031633145b610ce15760405162461bcd60e51b81526004016104fc9061244d565b610cef600780546001019055565b6000610cfa60075490565b60008181526009602090815260409091208651929350610d1e929091870190611bf1565b50610d3b33826001604051806020016040528060008152506111ff565b604080518281523360208201527f3a5398bda6f1f57d6c96834fa9bf02b5517bdc847d14312015a917ba421c31c9910160405180910390a16000818152600e60209081526040808320889055600a9091528120805491610d9a83612432565b90915550506000818152600d6020908152604080832080546001600160a01b0319166001600160a01b038816179055600c82528083203384528252808320805460ff19166001179055838352600b9091528120805491610df983612432565b909155509095945050505050565b610e1233838361159c565b5050565b6003546001600160a01b0316331480610e3957506004546001600160a01b031633145b610e555760405162461bcd60e51b81526004016104fc9061244d565b60008281526008602052604090206002015460ff1615158115151415610ec85760405162461bcd60e51b815260206004820152602260248201527f416c72656164792073657420746f207468652070726f76696465642076616c75604482015261329760f11b60648201526084016104fc565b600091825260086020526040909120600201805460ff1916911515919091179055565b6060600060405180610100016040528060dd815260200161280c60dd91399050610f148161167d565b604051602001610f249190612503565b60405160208183030381529060405291505090565b6001600160a01b038516331480610f555750610f558533610409565b610f715760405162461bcd60e51b81526004016104fc9061249f565b610b4385858585856117d1565b6003546001600160a01b0316331480610fa157506004546001600160a01b031633145b610fbd5760405162461bcd60e51b81526004016104fc9061244d565b610fc6816118fb565b50565b600860205260009081526040902080548190610fe4906123c2565b80601f0160208091040260200160405190810160405280929190818152602001828054611010906123c2565b801561105d5780601f106110325761010080835404028352916020019161105d565b820191906000526020600020905b81548152906001019060200180831161104057829003601f168201915b505050505090806001018054611072906123c2565b80601f016020809104026020016040519081016040528092919081815260200182805461109e906123c2565b80156110eb5780601f106110c0576101008083540402835291602001916110eb565b820191906000526020600020905b8154815290600101906020018083116110ce57829003601f168201915b505050600284015460038501546004860154600587018054969760ff909416969295509093509061111b906123c2565b80601f0160208091040260200160405190810160405280929190818152602001828054611147906123c2565b80156111945780601f1061116957610100808354040283529160200191611194565b820191906000526020600020905b81548152906001019060200180831161117757829003601f168201915b5050505050905086565b6003546001600160a01b03163314806111c157506004546001600160a01b031633145b6111dd5760405162461bcd60e51b81526004016104fc9061244d565b600480546001600160a01b0319166001600160a01b0392909216919091179055565b6001600160a01b03841661125f5760405162461bcd60e51b815260206004820152602160248201527f455243313135353a206d696e7420746f20746865207a65726f206164647265736044820152607360f81b60648201526084016104fc565b33600061126b85611971565b9050600061127885611971565b90506000868152602081815260408083206001600160a01b038b168452909152812080548792906112aa908490612548565b909155505060408051878152602081018790526001600160a01b03808a1692600092918716917fc3d58168c5ae7397731d063d5bbf3d657854427343f4c083240f7aacaa2d0f62910160405180910390a461130a836000898989896119bc565b50505050505050565b81518351146113755760405162461bcd60e51b815260206004820152602860248201527f455243313135353a2069647320616e6420616d6f756e7473206c656e677468206044820152670dad2e6dac2e8c6d60c31b60648201526084016104fc565b6001600160a01b03841661139b5760405162461bcd60e51b81526004016104fc90612560565b3360005b84518110156114825760008582815181106113bc576113bc6124ed565b6020026020010151905060008583815181106113da576113da6124ed565b602090810291909101810151600084815280835260408082206001600160a01b038e16835290935291909120549091508181101561142a5760405162461bcd60e51b81526004016104fc906125a5565b6000838152602081815260408083206001600160a01b038e8116855292528083208585039055908b16825281208054849290611467908490612548565b925050819055505050508061147b90612432565b905061139f565b50846001600160a01b0316866001600160a01b0316826001600160a01b03167f4a39dc06d4c0dbc64b70af90fd698a233a518aa5d07e595d983b8c0526c8f7fb87876040516114d29291906125ef565b60405180910390a46114e8818787878787611b27565b505050505050565b6003546001600160a01b03163314610c865760405162461bcd60e51b815260206004820181905260248201527f4f776e61626c653a2063616c6c6572206973206e6f7420746865206f776e657260448201526064016104fc565b600380546001600160a01b038381166001600160a01b0319831681179093556040519116919082907f8be0079c531659141344cd1fd0a4f28419497f9722a3daafe3b4186f6b6457e090600090a35050565b816001600160a01b0316836001600160a01b031614156116105760405162461bcd60e51b815260206004820152602960248201527f455243313135353a2073657474696e6720617070726f76616c20737461747573604482015268103337b91039b2b63360b91b60648201526084016104fc565b6001600160a01b03838116600081815260016020908152604080832094871680845294825291829020805460ff191686151590811790915591519182527f17307eab39ab6107e8899845ad3d59bd9653f200f220920489ca2b5937696c31910160405180910390a3505050565b606081516000141561169d57505060408051602081019091526000815290565b60006040518060600160405280604081526020016127cc60409139905060006003845160026116cc9190612548565b6116d6919061247d565b6116e1906004612413565b67ffffffffffffffff8111156116f9576116f9611dc2565b6040519080825280601f01601f191660200182016040528015611723576020820181803683370190505b509050600182016020820185865187015b8082101561178f576003820191508151603f8160121c168501518453600184019350603f81600c1c168501518453600184019350603f8160061c168501518453600184019350603f8116850151845350600183019250611734565b50506003865106600181146117ab57600281146117be576117c6565b603d6001830353603d60028303536117c6565b603d60018303535b509195945050505050565b6001600160a01b0384166117f75760405162461bcd60e51b81526004016104fc90612560565b33600061180385611971565b9050600061181085611971565b90506000868152602081815260408083206001600160a01b038c168452909152902054858110156118535760405162461bcd60e51b81526004016104fc906125a5565b6000878152602081815260408083206001600160a01b038d8116855292528083208985039055908a16825281208054889290611890908490612548565b909155505060408051888152602081018890526001600160a01b03808b16928c821692918816917fc3d58168c5ae7397731d063d5bbf3d657854427343f4c083240f7aacaa2d0f62910160405180910390a46118f0848a8a8a8a8a6119bc565b505050505050505050565b6119036114f0565b6001600160a01b0381166119685760405162461bcd60e51b815260206004820152602660248201527f4f776e61626c653a206e6577206f776e657220697320746865207a65726f206160448201526564647265737360d01b60648201526084016104fc565b610fc68161154a565b604080516001808252818301909252606091600091906020808301908036833701905050905082816000815181106119ab576119ab6124ed565b602090810291909101015292915050565b6001600160a01b0384163b156114e85760405163f23a6e6160e01b81526001600160a01b0385169063f23a6e6190611a00908990899088908890889060040161261d565b602060405180830381600087803b158015611a1a57600080fd5b505af1925050508015611a4a575060408051601f3d908101601f19168201909252611a4791810190612662565b60015b611af757611a5661267f565b806308c379a01415611a905750611a6b61269b565b80611a765750611a92565b8060405162461bcd60e51b81526004016104fc9190611d61565b505b60405162461bcd60e51b815260206004820152603460248201527f455243313135353a207472616e7366657220746f206e6f6e2d455243313135356044820152732932b1b2b4bb32b91034b6b83632b6b2b73a32b960611b60648201526084016104fc565b6001600160e01b0319811663f23a6e6160e01b1461130a5760405162461bcd60e51b81526004016104fc90612725565b6001600160a01b0384163b156114e85760405163bc197c8160e01b81526001600160a01b0385169063bc197c8190611b6b908990899088908890889060040161276d565b602060405180830381600087803b158015611b8557600080fd5b505af1925050508015611bb5575060408051601f3d908101601f19168201909252611bb291810190612662565b60015b611bc157611a5661267f565b6001600160e01b0319811663bc197c8160e01b1461130a5760405162461bcd60e51b81526004016104fc90612725565b828054611bfd906123c2565b90600052602060002090601f016020900481019282611c1f5760008555611c65565b82601f10611c3857805160ff1916838001178555611c65565b82800160010185558215611c65579182015b82811115611c65578251825591602001919060010190611c4a565b50611c71929150611c75565b5090565b5b80821115611c715760008155600101611c76565b6001600160a01b0381168114610fc657600080fd5b60008060408385031215611cb257600080fd5b8235611cbd81611c8a565b946020939093013593505050565b6001600160e01b031981168114610fc657600080fd5b600060208284031215611cf357600080fd5b8135611cfe81611ccb565b9392505050565b60005b83811015611d20578181015183820152602001611d08565b83811115611d2f576000848401525b50505050565b60008151808452611d4d816020860160208601611d05565b601f01601f19169290920160200192915050565b602081526000611cfe6020830184611d35565b600060208284031215611d8657600080fd5b5035919050565b600080600060608486031215611da257600080fd5b8335611dad81611c8a565b95602085013595506040909401359392505050565b634e487b7160e01b600052604160045260246000fd5b601f8201601f1916810167ffffffffffffffff81118282101715611dfe57611dfe611dc2565b6040525050565b600082601f830112611e1657600080fd5b813567ffffffffffffffff811115611e3057611e30611dc2565b604051611e47601f8301601f191660200182611dd8565b818152846020838601011115611e5c57600080fd5b816020850160208301376000918101602001919091529392505050565b60008060408385031215611e8c57600080fd5b82359150602083013567ffffffffffffffff811115611eaa57600080fd5b611eb685828601611e05565b9150509250929050565b80358015158114611ed057600080fd5b919050565b60008060008060008060c08789031215611eee57600080fd5b863567ffffffffffffffff80821115611f0657600080fd5b611f128a838b01611e05565b97506020890135915080821115611f2857600080fd5b611f348a838b01611e05565b9650611f4260408a01611ec0565b9550606089013594506080890135935060a0890135915080821115611f6657600080fd5b50611f7389828a01611e05565b9150509295509295509295565b60008060408385031215611f9357600080fd5b50508035926020909101359150565b600067ffffffffffffffff821115611fbc57611fbc611dc2565b5060051b60200190565b600082601f830112611fd757600080fd5b81356020611fe482611fa2565b604051611ff18282611dd8565b83815260059390931b850182019282810191508684111561201157600080fd5b8286015b8481101561202c5780358352918301918301612015565b509695505050505050565b600080600080600060a0868803121561204f57600080fd5b853561205a81611c8a565b9450602086013561206a81611c8a565b9350604086013567ffffffffffffffff8082111561208757600080fd5b61209389838a01611fc6565b945060608801359150808211156120a957600080fd5b6120b589838a01611fc6565b935060808801359150808211156120cb57600080fd5b506120d888828901611e05565b9150509295509295909350565b600080604083850312156120f857600080fd5b823567ffffffffffffffff8082111561211057600080fd5b818501915085601f83011261212457600080fd5b8135602061213182611fa2565b60405161213e8282611dd8565b83815260059390931b850182019282810191508984111561215e57600080fd5b948201945b8386101561218557853561217681611c8a565b82529482019490820190612163565b9650508601359250508082111561219b57600080fd5b50611eb685828601611fc6565b600081518084526020808501945080840160005b838110156121d8578151875295820195908201906001016121bc565b509495945050505050565b602081526000611cfe60208301846121a8565b60008060006060848603121561220b57600080fd5b83359250602084013567ffffffffffffffff81111561222957600080fd5b61223586828701611e05565b925050604084013561224681611c8a565b809150509250925092565b6000806040838503121561226457600080fd5b823561226f81611c8a565b915061227d60208401611ec0565b90509250929050565b6000806040838503121561229957600080fd5b8235915061227d60208401611ec0565b600080604083850312156122bc57600080fd5b82356122c781611c8a565b915060208301356122d781611c8a565b809150509250929050565b600080600080600060a086880312156122fa57600080fd5b853561230581611c8a565b9450602086013561231581611c8a565b93506040860135925060608601359150608086013567ffffffffffffffff81111561233f57600080fd5b6120d888828901611e05565b60006020828403121561235d57600080fd5b8135611cfe81611c8a565b60c08152600061237b60c0830189611d35565b828103602084015261238d8189611d35565b9050861515604084015285606084015284608084015282810360a08401526123b58185611d35565b9998505050505050505050565b600181811c908216806123d657607f821691505b602082108114156123f757634e487b7160e01b600052602260045260246000fd5b50919050565b634e487b7160e01b600052601160045260246000fd5b600081600019048311821515161561242d5761242d6123fd565b500290565b6000600019821415612446576124466123fd565b5060010190565b6020808252601690820152752737ba1037bbb732b91037b9103232bb32b637b832b960511b604082015260600190565b60008261249a57634e487b7160e01b600052601260045260246000fd5b500490565b6020808252602e908201527f455243313135353a2063616c6c6572206973206e6f7420746f6b656e206f776e60408201526d195c881bdc88185c1c1c9bdd995960921b606082015260800190565b634e487b7160e01b600052603260045260246000fd5b7f646174613a6170706c69636174696f6e2f6a736f6e3b6261736536342c00000081526000825161253b81601d850160208701611d05565b91909101601d0192915050565b6000821982111561255b5761255b6123fd565b500190565b60208082526025908201527f455243313135353a207472616e7366657220746f20746865207a65726f206164604082015264647265737360d81b606082015260800190565b6020808252602a908201527f455243313135353a20696e73756666696369656e742062616c616e636520666f60408201526939103a3930b739b332b960b11b606082015260800190565b60408152600061260260408301856121a8565b828103602084015261261481856121a8565b95945050505050565b6001600160a01b03868116825285166020820152604081018490526060810183905260a06080820181905260009061265790830184611d35565b979650505050505050565b60006020828403121561267457600080fd5b8151611cfe81611ccb565b600060033d11156126985760046000803e5060005160e01c5b90565b600060443d10156126a95790565b6040516003193d81016004833e81513d67ffffffffffffffff81602484011181841117156126d957505050505090565b82850191508151818111156126f15750505050505090565b843d870101602082850101111561270b5750505050505090565b61271a60208286010187611dd8565b509095945050505050565b60208082526028908201527f455243313135353a204552433131353552656365697665722072656a656374656040820152676420746f6b656e7360c01b606082015260800190565b6001600160a01b0386811682528516602082015260a060408201819052600090612799908301866121a8565b82810360608401526127ab81866121a8565b905082810360808401526127bf8185611d35565b9897505050505050505056fe4142434445464748494a4b4c4d4e4f505152535455565758595a6162636465666768696a6b6c6d6e6f707172737475767778797a303132333435363738392b2f7b226e616d65223a20225348494654204341505455524553222c226465736372697074696f6e223a2022436c61696d20616e206f66662d636861696e2070726f6f662d6f662d776f726b204e465420617274776f726b20636170747572696e6720746865206c61626f7220706572666f726d6564206c69766520627920616e2061637475616c20776f726b65722c207369676e656420616e642074696d657374616d70656420627920534849465420696e207468652063697479207468652049524c20706572666f726d616e63652074616b657320706c6163652e227da2646970667358221220e4077b20dfd4977f71c4e289ee1d6485b95cbc6e823642c01002bd9a9857dc6764736f6c63430008090033",
  "linkReferences": {},
  "deployedLinkReferences": {}
}