{
  "_format": "hh-sol-artifact-1",
  "contractName": "SHIFTCAPTURES",
  "sourceName": "contracts/SHIFTCAPTURES.sol",
  "abi": [
    {
      "inputs": [],
      "stateMutability": "nonpayable",
      "type": "constructor"
    },
    {
      "anonymous": false,
      "inputs": [
        {
          "indexed": true,
          "internalType": "address",
          "name": "account",
          "type": "address"
        },
        {
          "indexed": true,
          "internalType": "address",
          "name": "operator",
          "type": "address"
        },
        {
          "indexed": false,
          "internalType": "bool",
          "name": "approved",
          "type": "bool"
        }
      ],
      "name": "ApprovalForAll",
      "type": "event"
    },
    {
      "anonymous": false,
      "inputs": [
        {
          "indexed": true,
          "internalType": "address",
          "name": "previousOwner",
          "type": "address"
        },
        {
          "indexed": true,
          "internalType": "address",
          "name": "newOwner",
          "type": "address"
        }
      ],
      "name": "OwnershipTransferred",
      "type": "event"
    },
    {
      "anonymous": false,
      "inputs": [
        {
          "indexed": true,
          "internalType": "address",
          "name": "operator",
          "type": "address"
        },
        {
          "indexed": true,
          "internalType": "address",
          "name": "from",
          "type": "address"
        },
        {
          "indexed": true,
          "internalType": "address",
          "name": "to",
          "type": "address"
        },
        {
          "indexed": false,
          "internalType": "uint256[]",
          "name": "ids",
          "type": "uint256[]"
        },
        {
          "indexed": false,
          "internalType": "uint256[]",
          "name": "values",
          "type": "uint256[]"
        }
      ],
      "name": "TransferBatch",
      "type": "event"
    },
    {
      "anonymous": false,
      "inputs": [
        {
          "indexed": true,
          "internalType": "address",
          "name": "operator",
          "type": "address"
        },
        {
          "indexed": true,
          "internalType": "address",
          "name": "from",
          "type": "address"
        },
        {
          "indexed": true,
          "internalType": "address",
          "name": "to",
          "type": "address"
        },
        {
          "indexed": false,
          "internalType": "uint256",
          "name": "id",
          "type": "uint256"
        },
        {
          "indexed": false,
          "internalType": "uint256",
          "name": "value",
          "type": "uint256"
        }
      ],
      "name": "TransferSingle",
      "type": "event"
    },
    {
      "anonymous": false,
      "inputs": [
        {
          "indexed": false,
          "internalType": "string",
          "name": "value",
          "type": "string"
        },
        {
          "indexed": true,
          "internalType": "uint256",
          "name": "id",
          "type": "uint256"
        }
      ],
      "name": "URI",
      "type": "event"
    },
    {
      "inputs": [
        {
          "internalType": "address",
          "name": "account",
          "type": "address"
        },
        {
          "internalType": "uint256",
          "name": "id",
          "type": "uint256"
        }
      ],
      "name": "balanceOf",
      "outputs": [
        {
          "internalType": "uint256",
          "name": "",
          "type": "uint256"
        }
      ],
      "stateMutability": "view",
      "type": "function"
    },
    {
      "inputs": [
        {
          "internalType": "address[]",
          "name": "accounts",
          "type": "address[]"
        },
        {
          "internalType": "uint256[]",
          "name": "ids",
          "type": "uint256[]"
        }
      ],
      "name": "balanceOfBatch",
      "outputs": [
        {
          "internalType": "uint256[]",
          "name": "",
          "type": "uint256[]"
        }
      ],
      "stateMutability": "view",
      "type": "function"
    },
    {
      "inputs": [],
      "name": "collectionIdTracker",
      "outputs": [
        {
          "internalType": "uint256",
          "name": "_value",
          "type": "uint256"
        }
      ],
      "stateMutability": "view",
      "type": "function"
    },
    {
      "inputs": [
        {
          "internalType": "uint256",
          "name": "",
          "type": "uint256"
        }
      ],
      "name": "collections",
      "outputs": [
        {
          "internalType": "string",
          "name": "title",
          "type": "string"
        },
        {
          "internalType": "string",
          "name": "employer",
          "type": "string"
        },
        {
          "internalType": "string",
          "name": "description",
          "type": "string"
        },
        {
          "internalType": "bool",
          "name": "mintingEnabled",
          "type": "bool"
        },
        {
          "internalType": "string",
          "name": "imageUrl",
          "type": "string"
        },
        {
          "internalType": "uint256",
          "name": "closingDate",
          "type": "uint256"
        },
        {
          "internalType": "uint256",
          "name": "royaltyPercentage",
          "type": "uint256"
        }
      ],
      "stateMutability": "view",
      "type": "function"
    },
    {
      "inputs": [],
      "name": "contractURI",
      "outputs": [
        {
          "internalType": "string",
          "name": "",
          "type": "string"
        }
      ],
      "stateMutability": "pure",
      "type": "function"
    },
    {
      "inputs": [
        {
          "internalType": "string",
          "name": "title",
          "type": "string"
        },
        {
          "internalType": "string",
          "name": "employer",
          "type": "string"
        },
        {
          "internalType": "string",
          "name": "description",
          "type": "string"
        },
        {
          "internalType": "bool",
          "name": "mintingEnabled",
          "type": "bool"
        },
        {
          "internalType": "string",
          "name": "imageUrl",
          "type": "string"
        },
        {
          "internalType": "uint256",
          "name": "closingDate",
          "type": "uint256"
        },
        {
          "internalType": "uint256",
          "name": "royaltyPercentage",
          "type": "uint256"
        }
      ],
      "name": "createCollection",
      "outputs": [
        {
          "internalType": "uint256",
          "name": "",
          "type": "uint256"
        }
      ],
      "stateMutability": "nonpayable",
      "type": "function"
    },
    {
      "inputs": [
        {
          "internalType": "uint256",
          "name": "blueprintId",
          "type": "uint256"
        },
        {
          "internalType": "string",
          "name": "metadataURI",
          "type": "string"
        },
        {
          "internalType": "address payable",
          "name": "royaltyRecipient",
          "type": "address"
        }
      ],
      "name": "createShiftNFT",
      "outputs": [
        {
          "internalType": "uint256",
          "name": "",
          "type": "uint256"
        }
      ],
      "stateMutability": "nonpayable",
      "type": "function"
    },
    {
      "inputs": [],
      "name": "developer",
      "outputs": [
        {
          "internalType": "address",
          "name": "",
          "type": "address"
        }
      ],
      "stateMutability": "view",
      "type": "function"
    },
    {
      "inputs": [
        {
          "internalType": "address",
          "name": "account",
          "type": "address"
        },
        {
          "internalType": "address",
          "name": "operator",
          "type": "address"
        }
      ],
      "name": "isApprovedForAll",
      "outputs": [
        {
          "internalType": "bool",
          "name": "",
          "type": "bool"
        }
      ],
      "stateMutability": "view",
      "type": "function"
    },
    {
      "inputs": [
        {
          "internalType": "address",
          "name": "account",
          "type": "address"
        },
        {
          "internalType": "uint256",
          "name": "tokenId",
          "type": "uint256"
        },
        {
          "internalType": "uint256",
          "name": "amount",
          "type": "uint256"
        }
      ],
      "name": "mint",
      "outputs": [],
      "stateMutability": "nonpayable",
      "type": "function"
    },
    {
      "inputs": [],
      "name": "name",
      "outputs": [
        {
          "internalType": "string",
          "name": "",
          "type": "string"
        }
      ],
      "stateMutability": "view",
      "type": "function"
    },
    {
      "inputs": [],
      "name": "owner",
      "outputs": [
        {
          "internalType": "address",
          "name": "",
          "type": "address"
        }
      ],
      "stateMutability": "view",
      "type": "function"
    },
    {
      "inputs": [],
      "name": "renounceOwnership",
      "outputs": [],
      "stateMutability": "nonpayable",
      "type": "function"
    },
    {
      "inputs": [
        {
          "internalType": "uint256",
          "name": "tokenId",
          "type": "uint256"
        },
        {
          "internalType": "uint256",
          "name": "salePrice",
          "type": "uint256"
        }
      ],
      "name": "royaltyInfo",
      "outputs": [
        {
          "internalType": "address",
          "name": "receiver",
          "type": "address"
        },
        {
          "internalType": "uint256",
          "name": "royaltyAmount",
          "type": "uint256"
        }
      ],
      "stateMutability": "view",
      "type": "function"
    },
    {
      "inputs": [
        {
          "internalType": "address",
          "name": "from",
          "type": "address"
        },
        {
          "internalType": "address",
          "name": "to",
          "type": "address"
        },
        {
          "internalType": "uint256[]",
          "name": "ids",
          "type": "uint256[]"
        },
        {
          "internalType": "uint256[]",
          "name": "amounts",
          "type": "uint256[]"
        },
        {
          "internalType": "bytes",
          "name": "data",
          "type": "bytes"
        }
      ],
      "name": "safeBatchTransferFrom",
      "outputs": [],
      "stateMutability": "nonpayable",
      "type": "function"
    },
    {
      "inputs": [
        {
          "internalType": "address",
          "name": "from",
          "type": "address"
        },
        {
          "internalType": "address",
          "name": "to",
          "type": "address"
        },
        {
          "internalType": "uint256",
          "name": "id",
          "type": "uint256"
        },
        {
          "internalType": "uint256",
          "name": "amount",
          "type": "uint256"
        },
        {
          "internalType": "bytes",
          "name": "data",
          "type": "bytes"
        }
      ],
      "name": "safeTransferFrom",
      "outputs": [],
      "stateMutability": "nonpayable",
      "type": "function"
    },
    {
      "inputs": [
        {
          "internalType": "address",
          "name": "operator",
          "type": "address"
        },
        {
          "internalType": "bool",
          "name": "approved",
          "type": "bool"
        }
      ],
      "name": "setApprovalForAll",
      "outputs": [],
      "stateMutability": "nonpayable",
      "type": "function"
    },
    {
      "inputs": [
        {
          "internalType": "address",
          "name": "_developer",
          "type": "address"
        }
      ],
      "name": "setDeveloper",
      "outputs": [],
      "stateMutability": "nonpayable",
      "type": "function"
    },
    {
      "inputs": [
        {
          "internalType": "uint256",
          "name": "collectionId",
          "type": "uint256"
        },
        {
          "internalType": "bool",
          "name": "enabled",
          "type": "bool"
        }
      ],
      "name": "setMintingEnabled",
      "outputs": [],
      "stateMutability": "nonpayable",
      "type": "function"
    },
    {
      "inputs": [
        {
          "internalType": "bytes4",
          "name": "interfaceId",
          "type": "bytes4"
        }
      ],
      "name": "supportsInterface",
      "outputs": [
        {
          "internalType": "bool",
          "name": "",
          "type": "bool"
        }
      ],
      "stateMutability": "view",
      "type": "function"
    },
    {
      "inputs": [],
      "name": "tokenIdTracker",
      "outputs": [
        {
          "internalType": "uint256",
          "name": "_value",
          "type": "uint256"
        }
      ],
      "stateMutability": "view",
      "type": "function"
    },
    {
      "inputs": [
        {
          "internalType": "uint256",
          "name": "",
          "type": "uint256"
        }
      ],
      "name": "tokenMintCount",
      "outputs": [
        {
          "internalType": "uint256",
          "name": "",
          "type": "uint256"
        }
      ],
      "stateMutability": "view",
      "type": "function"
    },
    {
      "inputs": [
        {
          "internalType": "uint256",
          "name": "",
          "type": "uint256"
        }
      ],
      "name": "tokenMinterCount",
      "outputs": [
        {
          "internalType": "uint256",
          "name": "",
          "type": "uint256"
        }
      ],
      "stateMutability": "view",
      "type": "function"
    },
    {
      "inputs": [
        {
          "internalType": "uint256",
          "name": "",
          "type": "uint256"
        }
      ],
      "name": "tokenRoyaltyRecipients",
      "outputs": [
        {
          "internalType": "address payable",
          "name": "",
          "type": "address"
        }
      ],
      "stateMutability": "view",
      "type": "function"
    },
    {
      "inputs": [
        {
          "internalType": "uint256",
          "name": "",
          "type": "uint256"
        }
      ],
      "name": "tokenToCollection",
      "outputs": [
        {
          "internalType": "uint256",
          "name": "",
          "type": "uint256"
        }
      ],
      "stateMutability": "view",
      "type": "function"
    },
    {
      "inputs": [
        {
          "internalType": "address",
          "name": "newOwner",
          "type": "address"
        }
      ],
      "name": "transferOwnership",
      "outputs": [],
      "stateMutability": "nonpayable",
      "type": "function"
    },
    {
      "inputs": [
        {
          "internalType": "uint256",
          "name": "tokenId",
          "type": "uint256"
        }
      ],
      "name": "uri",
      "outputs": [
        {
          "internalType": "string",
          "name": "",
          "type": "string"
        }
      ],
      "stateMutability": "view",
      "type": "function"
    }
  ],
  "bytecode": "0x60c0604052600e60808190526d534849465420434150545552455360901b60a0908152620000319160059190620000d7565b503480156200003f57600080fd5b506040805160208101909152600081526200005a816200006c565b50620000663362000085565b620001ba565b805162000081906002906020840190620000d7565b5050565b600380546001600160a01b038381166001600160a01b0319831681179093556040519116919082907f8be0079c531659141344cd1fd0a4f28419497f9722a3daafe3b4186f6b6457e090600090a35050565b828054620000e5906200017d565b90600052602060002090601f01602090048101928262000109576000855562000154565b82601f106200012457805160ff191683800117855562000154565b8280016001018555821562000154579182015b828111156200015457825182559160200191906001019062000137565b506200016292915062000166565b5090565b5b8082111562000162576000815560010162000167565b600181811c908216806200019257607f821691505b60208210811415620001b457634e487b7160e01b600052602260045260246000fd5b50919050565b61280a80620001ca6000396000f3fe608060405234801561001057600080fd5b50600436106101a85760003560e01c80636f02d25f116100f9578063ca4b208b11610097578063f242432a11610071578063f242432a14610409578063f2fde38b1461041c578063fdbda0ec1461042f578063ff70fa491461045557600080fd5b8063ca4b208b146103b2578063e8a3d485146103c5578063e985e9c5146103cd57600080fd5b80638fc86a7b116100d35780638fc86a7b14610359578063a22cb4651461036c578063b24725071461037f578063c2c36ffb1461039257600080fd5b80636f02d25f1461032d578063715018a6146103405780638da5cb5b1461034857600080fd5b8063195f78ae116101665780632eb2c2d6116101405780632eb2c2d6146102995780633264673f146102ac5780634e1273f4146102ed5780634f27e7871461030d57600080fd5b8063195f78ae1461023d5780631e3b4ac81461025d5780632a55205a1461026757600080fd5b8062fdd58e146101ad57806301ffc9a7146101d357806302bf3d56146101f657806306fdde03146102005780630e89341c14610215578063156e29f614610228575b600080fd5b6101c06101bb366004611b90565b610468565b6040519081526020015b60405180910390f35b6101e66101e1366004611bd2565b6104fe565b60405190151581526020016101ca565b6007546101c09081565b610208610550565b6040516101ca9190611c52565b610208610223366004611c65565b6105de565b61023b610236366004611c7e565b610680565b005b6101c061024b366004611c65565b600e6020526000908152604090205481565b6006546101c09081565b61027a610275366004611cb3565b610732565b604080516001600160a01b0390931683526020830191909152016101ca565b61023b6102a7366004611e21565b61077e565b6102d56102ba366004611c65565b600d602052600090815260409020546001600160a01b031681565b6040516001600160a01b0390911681526020016101ca565b6103006102fb366004611ecf565b6107ca565b6040516101ca9190611fd7565b6101c061031b366004611c65565b600a6020526000908152604090205481565b6101c061033b366004611fff565b6108f4565b61023b610a58565b6003546001600160a01b03166102d5565b6101c06103673660046120d0565b610a6c565b61023b61037a36600461212b565b610ce9565b61023b61038d366004612160565b610cf8565b6101c06103a0366004611c65565b600b6020526000908152604090205481565b6004546102d5906001600160a01b031681565b610208610dcd565b6101e66103db366004612183565b6001600160a01b03918216600090815260016020908152604080832093909416825291909152205460ff1690565b61023b6104173660046121bc565b610e1b565b61023b61042a366004612225565b610e60565b61044261043d366004611c65565b610ed9565b6040516101ca9796959493929190612242565b61023b610463366004612225565b61113c565b60006001600160a01b0383166104d85760405162461bcd60e51b815260206004820152602a60248201527f455243313135353a2061646472657373207a65726f206973206e6f742061207660448201526930b634b21037bbb732b960b11b60648201526084015b60405180910390fd5b506000908152602081815260408083206001600160a01b03949094168352929052205490565b60006001600160e01b03198216636cdb3d1360e11b148061052f57506001600160e01b031982166303a24d0760e21b145b8061054a57506301ffc9a760e01b6001600160e01b03198316145b92915050565b6005805461055d906122ae565b80601f0160208091040260200160405190810160405280929190818152602001828054610589906122ae565b80156105d65780601f106105ab576101008083540402835291602001916105d6565b820191906000526020600020905b8154815290600101906020018083116105b957829003601f168201915b505050505081565b60008181526009602052604090208054606091906105fb906122ae565b80601f0160208091040260200160405190810160405280929190818152602001828054610627906122ae565b80156106745780601f1061064957610100808354040283529160200191610674565b820191906000526020600020905b81548152906001019060200180831161065757829003601f168201915b50505050509050919050565b61069b83838360405180602001604052806000815250611166565b6000828152600a602052604081208054916106b5836122ff565b90915550506000828152600c602090815260408083206001600160a01b038716845290915290205460ff1661072d576000828152600c602090815260408083206001600160a01b03871684528252808320805460ff19166001179055848352600b9091528120805491610727836122ff565b91905055505b505050565b600082815260086020908152604080832060060154600d9092528220548291906001600160a01b0316612710610768838761231a565b6107729190612339565b90969095509350505050565b6001600160a01b03851633148061079a575061079a85336103db565b6107b65760405162461bcd60e51b81526004016104cf9061235b565b6107c3858585858561127a565b5050505050565b6060815183511461082f5760405162461bcd60e51b815260206004820152602960248201527f455243313135353a206163636f756e747320616e6420696473206c656e677468604482015268040dad2e6dac2e8c6d60bb1b60648201526084016104cf565b6000835167ffffffffffffffff81111561084b5761084b611cd5565b604051908082528060200260200182016040528015610874578160200160208202803683370190505b50905060005b84518110156108ec576108bf858281518110610898576108986123a9565b60200260200101518583815181106108b2576108b26123a9565b6020026020010151610468565b8282815181106108d1576108d16123a9565b60209081029190910101526108e5816122ff565b905061087a565b509392505050565b60006109086003546001600160a01b031690565b6001600160a01b0316336001600160a01b0316148061093157506004546001600160a01b031633145b61094d5760405162461bcd60e51b81526004016104cf906123bf565b61095b600680546001019055565b600061096660065490565b90506040518060e001604052808a81526020018981526020018881526020018715158152602001868152602001858152602001848152506008600083815260200190815260200160002060008201518160000190805190602001906109cc929190611ae2565b5060208281015180516109e59260018501920190611ae2565b5060408201518051610a01916002840191602090910190611ae2565b50606082015160038201805460ff191691151591909117905560808201518051610a35916004840191602090910190611ae2565b5060a0820151600582015560c09091015160069091015598975050505050505050565b610a60611457565b610a6a60006114b1565b565b6000610a806003546001600160a01b031690565b6001600160a01b0316336001600160a01b03161480610aa957506004546001600160a01b031633145b610ac55760405162461bcd60e51b81526004016104cf906123bf565b60008481526008602052604090206003015460ff16610b3a5760405162461bcd60e51b815260206004820152602b60248201527f4d696e74696e67206973206e6f7420656e61626c656420666f7220746869732060448201526a31b7b63632b1ba34b7b71760a91b60648201526084016104cf565b6000848152600860205260409020600501544210610bb85760405162461bcd60e51b815260206004820152603560248201527f596f7527726520746f6f206c6174652e204d696e74696e6720666f7220746869604482015274399031b7b63632b1ba34b7b71032bc3834b932b21760591b60648201526084016104cf565b610bc6600780546001019055565b6000610bd160075490565b60008181526009602090815260409091208651929350610bf5929091870190611ae2565b50610c23610c0b6003546001600160a01b031690565b82600160405180602001604052806000815250611166565b6000818152600e60209081526040808320889055600a9091528120805491610c4a836122ff565b90915550506000818152600d6020908152604080832080546001600160a01b0388166001600160a01b0319909116179055600c9091528120600191610c976003546001600160a01b031690565b6001600160a01b0316815260208082019290925260409081016000908120805460ff191694151594909417909355838352600b9091528120805491610cdb836122ff565b909155509095945050505050565b610cf4338383611503565b5050565b6003546001600160a01b0316331480610d1b57506004546001600160a01b031633145b610d375760405162461bcd60e51b81526004016104cf906123bf565b60008281526008602052604090206003015460ff1615158115151415610daa5760405162461bcd60e51b815260206004820152602260248201527f416c72656164792073657420746f207468652070726f76696465642076616c75604482015261329760f11b60648201526084016104cf565b600091825260086020526040909120600301805460ff1916911515919091179055565b6060600060405180610100016040528060dd81526020016126f860dd91399050610df6816115e4565b604051602001610e0691906123ef565b60405160208183030381529060405291505090565b6001600160a01b038516331480610e375750610e3785336103db565b610e535760405162461bcd60e51b81526004016104cf9061235b565b6107c38585858585611738565b610e68611457565b6001600160a01b038116610ecd5760405162461bcd60e51b815260206004820152602660248201527f4f776e61626c653a206e6577206f776e657220697320746865207a65726f206160448201526564647265737360d01b60648201526084016104cf565b610ed6816114b1565b50565b600860205260009081526040902080548190610ef4906122ae565b80601f0160208091040260200160405190810160405280929190818152602001828054610f20906122ae565b8015610f6d5780601f10610f4257610100808354040283529160200191610f6d565b820191906000526020600020905b815481529060010190602001808311610f5057829003601f168201915b505050505090806001018054610f82906122ae565b80601f0160208091040260200160405190810160405280929190818152602001828054610fae906122ae565b8015610ffb5780601f10610fd057610100808354040283529160200191610ffb565b820191906000526020600020905b815481529060010190602001808311610fde57829003601f168201915b505050505090806002018054611010906122ae565b80601f016020809104026020016040519081016040528092919081815260200182805461103c906122ae565b80156110895780601f1061105e57610100808354040283529160200191611089565b820191906000526020600020905b81548152906001019060200180831161106c57829003601f168201915b5050506003840154600485018054949560ff9092169491935091506110ad906122ae565b80601f01602080910402602001604051908101604052809291908181526020018280546110d9906122ae565b80156111265780601f106110fb57610100808354040283529160200191611126565b820191906000526020600020905b81548152906001019060200180831161110957829003601f168201915b5050505050908060050154908060060154905087565b611144611457565b600480546001600160a01b0319166001600160a01b0392909216919091179055565b6001600160a01b0384166111c65760405162461bcd60e51b815260206004820152602160248201527f455243313135353a206d696e7420746f20746865207a65726f206164647265736044820152607360f81b60648201526084016104cf565b3360006111d285611862565b905060006111df85611862565b90506000868152602081815260408083206001600160a01b038b16845290915281208054879290611211908490612434565b909155505060408051878152602081018790526001600160a01b03808a1692600092918716917fc3d58168c5ae7397731d063d5bbf3d657854427343f4c083240f7aacaa2d0f62910160405180910390a4611271836000898989896118ad565b50505050505050565b81518351146112dc5760405162461bcd60e51b815260206004820152602860248201527f455243313135353a2069647320616e6420616d6f756e7473206c656e677468206044820152670dad2e6dac2e8c6d60c31b60648201526084016104cf565b6001600160a01b0384166113025760405162461bcd60e51b81526004016104cf9061244c565b3360005b84518110156113e9576000858281518110611323576113236123a9565b602002602001015190506000858381518110611341576113416123a9565b602090810291909101810151600084815280835260408082206001600160a01b038e1683529093529190912054909150818110156113915760405162461bcd60e51b81526004016104cf90612491565b6000838152602081815260408083206001600160a01b038e8116855292528083208585039055908b168252812080548492906113ce908490612434565b92505081905550505050806113e2906122ff565b9050611306565b50846001600160a01b0316866001600160a01b0316826001600160a01b03167f4a39dc06d4c0dbc64b70af90fd698a233a518aa5d07e595d983b8c0526c8f7fb87876040516114399291906124db565b60405180910390a461144f818787878787611a18565b505050505050565b6003546001600160a01b03163314610a6a5760405162461bcd60e51b815260206004820181905260248201527f4f776e61626c653a2063616c6c6572206973206e6f7420746865206f776e657260448201526064016104cf565b600380546001600160a01b038381166001600160a01b0319831681179093556040519116919082907f8be0079c531659141344cd1fd0a4f28419497f9722a3daafe3b4186f6b6457e090600090a35050565b816001600160a01b0316836001600160a01b031614156115775760405162461bcd60e51b815260206004820152602960248201527f455243313135353a2073657474696e6720617070726f76616c20737461747573604482015268103337b91039b2b63360b91b60648201526084016104cf565b6001600160a01b03838116600081815260016020908152604080832094871680845294825291829020805460ff191686151590811790915591519182527f17307eab39ab6107e8899845ad3d59bd9653f200f220920489ca2b5937696c31910160405180910390a3505050565b606081516000141561160457505060408051602081019091526000815290565b60006040518060600160405280604081526020016126b860409139905060006003845160026116339190612434565b61163d9190612339565b61164890600461231a565b67ffffffffffffffff81111561166057611660611cd5565b6040519080825280601f01601f19166020018201604052801561168a576020820181803683370190505b509050600182016020820185865187015b808210156116f6576003820191508151603f8160121c168501518453600184019350603f81600c1c168501518453600184019350603f8160061c168501518453600184019350603f811685015184535060018301925061169b565b505060038651066001811461171257600281146117255761172d565b603d6001830353603d600283035361172d565b603d60018303535b509195945050505050565b6001600160a01b03841661175e5760405162461bcd60e51b81526004016104cf9061244c565b33600061176a85611862565b9050600061177785611862565b90506000868152602081815260408083206001600160a01b038c168452909152902054858110156117ba5760405162461bcd60e51b81526004016104cf90612491565b6000878152602081815260408083206001600160a01b038d8116855292528083208985039055908a168252812080548892906117f7908490612434565b909155505060408051888152602081018890526001600160a01b03808b16928c821692918816917fc3d58168c5ae7397731d063d5bbf3d657854427343f4c083240f7aacaa2d0f62910160405180910390a4611857848a8a8a8a8a6118ad565b505050505050505050565b6040805160018082528183019092526060916000919060208083019080368337019050509050828160008151811061189c5761189c6123a9565b602090810291909101015292915050565b6001600160a01b0384163b1561144f5760405163f23a6e6160e01b81526001600160a01b0385169063f23a6e61906118f19089908990889088908890600401612509565b602060405180830381600087803b15801561190b57600080fd5b505af192505050801561193b575060408051601f3d908101601f191682019092526119389181019061254e565b60015b6119e85761194761256b565b806308c379a01415611981575061195c612587565b806119675750611983565b8060405162461bcd60e51b81526004016104cf9190611c52565b505b60405162461bcd60e51b815260206004820152603460248201527f455243313135353a207472616e7366657220746f206e6f6e2d455243313135356044820152732932b1b2b4bb32b91034b6b83632b6b2b73a32b960611b60648201526084016104cf565b6001600160e01b0319811663f23a6e6160e01b146112715760405162461bcd60e51b81526004016104cf90612611565b6001600160a01b0384163b1561144f5760405163bc197c8160e01b81526001600160a01b0385169063bc197c8190611a5c9089908990889088908890600401612659565b602060405180830381600087803b158015611a7657600080fd5b505af1925050508015611aa6575060408051601f3d908101601f19168201909252611aa39181019061254e565b60015b611ab25761194761256b565b6001600160e01b0319811663bc197c8160e01b146112715760405162461bcd60e51b81526004016104cf90612611565b828054611aee906122ae565b90600052602060002090601f016020900481019282611b105760008555611b56565b82601f10611b2957805160ff1916838001178555611b56565b82800160010185558215611b56579182015b82811115611b56578251825591602001919060010190611b3b565b50611b62929150611b66565b5090565b5b80821115611b625760008155600101611b67565b6001600160a01b0381168114610ed657600080fd5b60008060408385031215611ba357600080fd5b8235611bae81611b7b565b946020939093013593505050565b6001600160e01b031981168114610ed657600080fd5b600060208284031215611be457600080fd5b8135611bef81611bbc565b9392505050565b60005b83811015611c11578181015183820152602001611bf9565b83811115611c20576000848401525b50505050565b60008151808452611c3e816020860160208601611bf6565b601f01601f19169290920160200192915050565b602081526000611bef6020830184611c26565b600060208284031215611c7757600080fd5b5035919050565b600080600060608486031215611c9357600080fd5b8335611c9e81611b7b565b95602085013595506040909401359392505050565b60008060408385031215611cc657600080fd5b50508035926020909101359150565b634e487b7160e01b600052604160045260246000fd5b601f8201601f1916810167ffffffffffffffff81118282101715611d1157611d11611cd5565b6040525050565b600067ffffffffffffffff821115611d3257611d32611cd5565b5060051b60200190565b600082601f830112611d4d57600080fd5b81356020611d5a82611d18565b604051611d678282611ceb565b83815260059390931b8501820192828101915086841115611d8757600080fd5b8286015b84811015611da25780358352918301918301611d8b565b509695505050505050565b600082601f830112611dbe57600080fd5b813567ffffffffffffffff811115611dd857611dd8611cd5565b604051611def601f8301601f191660200182611ceb565b818152846020838601011115611e0457600080fd5b816020850160208301376000918101602001919091529392505050565b600080600080600060a08688031215611e3957600080fd5b8535611e4481611b7b565b94506020860135611e5481611b7b565b9350604086013567ffffffffffffffff80821115611e7157600080fd5b611e7d89838a01611d3c565b94506060880135915080821115611e9357600080fd5b611e9f89838a01611d3c565b93506080880135915080821115611eb557600080fd5b50611ec288828901611dad565b9150509295509295909350565b60008060408385031215611ee257600080fd5b823567ffffffffffffffff80821115611efa57600080fd5b818501915085601f830112611f0e57600080fd5b81356020611f1b82611d18565b604051611f288282611ceb565b83815260059390931b8501820192828101915089841115611f4857600080fd5b948201945b83861015611f6f578535611f6081611b7b565b82529482019490820190611f4d565b96505086013592505080821115611f8557600080fd5b50611f9285828601611d3c565b9150509250929050565b600081518084526020808501945080840160005b83811015611fcc57815187529582019590820190600101611fb0565b509495945050505050565b602081526000611bef6020830184611f9c565b80358015158114611ffa57600080fd5b919050565b600080600080600080600060e0888a03121561201a57600080fd5b873567ffffffffffffffff8082111561203257600080fd5b61203e8b838c01611dad565b985060208a013591508082111561205457600080fd5b6120608b838c01611dad565b975060408a013591508082111561207657600080fd5b6120828b838c01611dad565b965061209060608b01611fea565b955060808a01359150808211156120a657600080fd5b506120b38a828b01611dad565b93505060a0880135915060c0880135905092959891949750929550565b6000806000606084860312156120e557600080fd5b83359250602084013567ffffffffffffffff81111561210357600080fd5b61210f86828701611dad565b925050604084013561212081611b7b565b809150509250925092565b6000806040838503121561213e57600080fd5b823561214981611b7b565b915061215760208401611fea565b90509250929050565b6000806040838503121561217357600080fd5b8235915061215760208401611fea565b6000806040838503121561219657600080fd5b82356121a181611b7b565b915060208301356121b181611b7b565b809150509250929050565b600080600080600060a086880312156121d457600080fd5b85356121df81611b7b565b945060208601356121ef81611b7b565b93506040860135925060608601359150608086013567ffffffffffffffff81111561221957600080fd5b611ec288828901611dad565b60006020828403121561223757600080fd5b8135611bef81611b7b565b60e08152600061225560e083018a611c26565b8281036020840152612267818a611c26565b9050828103604084015261227b8189611c26565b9050861515606084015282810360808401526122978187611c26565b60a0840195909552505060c0015295945050505050565b600181811c908216806122c257607f821691505b602082108114156122e357634e487b7160e01b600052602260045260246000fd5b50919050565b634e487b7160e01b600052601160045260246000fd5b6000600019821415612313576123136122e9565b5060010190565b6000816000190483118215151615612334576123346122e9565b500290565b60008261235657634e487b7160e01b600052601260045260246000fd5b500490565b6020808252602e908201527f455243313135353a2063616c6c6572206973206e6f7420746f6b656e206f776e60408201526d195c881bdc88185c1c1c9bdd995960921b606082015260800190565b634e487b7160e01b600052603260045260246000fd5b6020808252601690820152752737ba1037bbb732b91037b9103232bb32b637b832b960511b604082015260600190565b7f646174613a6170706c69636174696f6e2f6a736f6e3b6261736536342c00000081526000825161242781601d850160208701611bf6565b91909101601d0192915050565b60008219821115612447576124476122e9565b500190565b60208082526025908201527f455243313135353a207472616e7366657220746f20746865207a65726f206164604082015264647265737360d81b606082015260800190565b6020808252602a908201527f455243313135353a20696e73756666696369656e742062616c616e636520666f60408201526939103a3930b739b332b960b11b606082015260800190565b6040815260006124ee6040830185611f9c565b82810360208401526125008185611f9c565b95945050505050565b6001600160a01b03868116825285166020820152604081018490526060810183905260a06080820181905260009061254390830184611c26565b979650505050505050565b60006020828403121561256057600080fd5b8151611bef81611bbc565b600060033d11156125845760046000803e5060005160e01c5b90565b600060443d10156125955790565b6040516003193d81016004833e81513d67ffffffffffffffff81602484011181841117156125c557505050505090565b82850191508151818111156125dd5750505050505090565b843d87010160208285010111156125f75750505050505090565b61260660208286010187611ceb565b509095945050505050565b60208082526028908201527f455243313135353a204552433131353552656365697665722072656a656374656040820152676420746f6b656e7360c01b606082015260800190565b6001600160a01b0386811682528516602082015260a06040820181905260009061268590830186611f9c565b82810360608401526126978186611f9c565b905082810360808401526126ab8185611c26565b9897505050505050505056fe4142434445464748494a4b4c4d4e4f505152535455565758595a6162636465666768696a6b6c6d6e6f707172737475767778797a303132333435363738392b2f7b226e616d65223a20225348494654204341505455524553222c226465736372697074696f6e223a2022436c61696d20616e206f66662d636861696e2070726f6f662d6f662d776f726b204e465420617274776f726b20636170747572696e6720746865206c61626f7220706572666f726d6564206c69766520627920616e2061637475616c20776f726b65722c207369676e656420616e642074696d657374616d70656420627920534849465420696e207468652063697479207468652049524c20706572666f726d616e63652074616b657320706c6163652e227da2646970667358221220888f2483c7117b7e8e8a04b5dd9bc459bca6fc41f3e4e9cf4c9da32ea71e4f6164736f6c63430008090033",
  "linkReferences": {},
  "deployedLinkReferences": {}
}