{
  "_format": "hh-sol-artifact-1",
  "contractName": "SHIFTCAPTURES",
  "sourceName": "contracts/SHIFTCAPTURES.sol",
  "abi": [
    {
      "inputs": [],
      "stateMutability": "nonpayable",
      "type": "constructor"
    },
    {
      "anonymous": false,
      "inputs": [
        {
          "indexed": true,
          "internalType": "address",
          "name": "account",
          "type": "address"
        },
        {
          "indexed": true,
          "internalType": "address",
          "name": "operator",
          "type": "address"
        },
        {
          "indexed": false,
          "internalType": "bool",
          "name": "approved",
          "type": "bool"
        }
      ],
      "name": "ApprovalForAll",
      "type": "event"
    },
    {
      "anonymous": false,
      "inputs": [
        {
          "indexed": true,
          "internalType": "address",
          "name": "previousOwner",
          "type": "address"
        },
        {
          "indexed": true,
          "internalType": "address",
          "name": "newOwner",
          "type": "address"
        }
      ],
      "name": "OwnershipTransferred",
      "type": "event"
    },
    {
      "anonymous": false,
      "inputs": [
        {
          "indexed": false,
          "internalType": "uint256",
          "name": "tokenId",
          "type": "uint256"
        },
        {
          "indexed": false,
          "internalType": "address",
          "name": "minter",
          "type": "address"
        }
      ],
      "name": "TokenMinted",
      "type": "event"
    },
    {
      "anonymous": false,
      "inputs": [
        {
          "indexed": true,
          "internalType": "address",
          "name": "operator",
          "type": "address"
        },
        {
          "indexed": true,
          "internalType": "address",
          "name": "from",
          "type": "address"
        },
        {
          "indexed": true,
          "internalType": "address",
          "name": "to",
          "type": "address"
        },
        {
          "indexed": false,
          "internalType": "uint256[]",
          "name": "ids",
          "type": "uint256[]"
        },
        {
          "indexed": false,
          "internalType": "uint256[]",
          "name": "values",
          "type": "uint256[]"
        }
      ],
      "name": "TransferBatch",
      "type": "event"
    },
    {
      "anonymous": false,
      "inputs": [
        {
          "indexed": true,
          "internalType": "address",
          "name": "operator",
          "type": "address"
        },
        {
          "indexed": true,
          "internalType": "address",
          "name": "from",
          "type": "address"
        },
        {
          "indexed": true,
          "internalType": "address",
          "name": "to",
          "type": "address"
        },
        {
          "indexed": false,
          "internalType": "uint256",
          "name": "id",
          "type": "uint256"
        },
        {
          "indexed": false,
          "internalType": "uint256",
          "name": "value",
          "type": "uint256"
        }
      ],
      "name": "TransferSingle",
      "type": "event"
    },
    {
      "anonymous": false,
      "inputs": [
        {
          "indexed": false,
          "internalType": "string",
          "name": "value",
          "type": "string"
        },
        {
          "indexed": true,
          "internalType": "uint256",
          "name": "id",
          "type": "uint256"
        }
      ],
      "name": "URI",
      "type": "event"
    },
    {
      "inputs": [
        {
          "internalType": "address",
          "name": "account",
          "type": "address"
        },
        {
          "internalType": "uint256",
          "name": "id",
          "type": "uint256"
        }
      ],
      "name": "balanceOf",
      "outputs": [
        {
          "internalType": "uint256",
          "name": "",
          "type": "uint256"
        }
      ],
      "stateMutability": "view",
      "type": "function"
    },
    {
      "inputs": [
        {
          "internalType": "address[]",
          "name": "accounts",
          "type": "address[]"
        },
        {
          "internalType": "uint256[]",
          "name": "ids",
          "type": "uint256[]"
        }
      ],
      "name": "balanceOfBatch",
      "outputs": [
        {
          "internalType": "uint256[]",
          "name": "",
          "type": "uint256[]"
        }
      ],
      "stateMutability": "view",
      "type": "function"
    },
    {
      "inputs": [],
      "name": "collectionIdTracker",
      "outputs": [
        {
          "internalType": "uint256",
          "name": "_value",
          "type": "uint256"
        }
      ],
      "stateMutability": "view",
      "type": "function"
    },
    {
      "inputs": [
        {
          "internalType": "uint256",
          "name": "",
          "type": "uint256"
        }
      ],
      "name": "collections",
      "outputs": [
        {
          "internalType": "string",
          "name": "title",
          "type": "string"
        },
        {
          "internalType": "string",
          "name": "employer",
          "type": "string"
        },
        {
          "internalType": "bool",
          "name": "mintingEnabled",
          "type": "bool"
        },
        {
          "internalType": "uint256",
          "name": "closingDate",
          "type": "uint256"
        },
        {
          "internalType": "uint256",
          "name": "royaltyPercentage",
          "type": "uint256"
        },
        {
          "internalType": "string",
          "name": "place",
          "type": "string"
        }
      ],
      "stateMutability": "view",
      "type": "function"
    },
    {
      "inputs": [],
      "name": "contractURI",
      "outputs": [
        {
          "internalType": "string",
          "name": "",
          "type": "string"
        }
      ],
      "stateMutability": "pure",
      "type": "function"
    },
    {
      "inputs": [
        {
          "internalType": "string",
          "name": "title",
          "type": "string"
        },
        {
          "internalType": "string",
          "name": "employer",
          "type": "string"
        },
        {
          "internalType": "bool",
          "name": "mintingEnabled",
          "type": "bool"
        },
        {
          "internalType": "uint256",
          "name": "closingDate",
          "type": "uint256"
        },
        {
          "internalType": "uint256",
          "name": "royaltyPercentage",
          "type": "uint256"
        },
        {
          "internalType": "string",
          "name": "place",
          "type": "string"
        }
      ],
      "name": "createCollection",
      "outputs": [
        {
          "internalType": "uint256",
          "name": "",
          "type": "uint256"
        }
      ],
      "stateMutability": "nonpayable",
      "type": "function"
    },
    {
      "inputs": [
        {
          "internalType": "uint256",
          "name": "blueprintId",
          "type": "uint256"
        },
        {
          "internalType": "string",
          "name": "metadataURI",
          "type": "string"
        },
        {
          "internalType": "address payable",
          "name": "royaltyRecipient",
          "type": "address"
        }
      ],
      "name": "createShiftNFT",
      "outputs": [
        {
          "internalType": "uint256",
          "name": "",
          "type": "uint256"
        }
      ],
      "stateMutability": "nonpayable",
      "type": "function"
    },
    {
      "inputs": [
        {
          "internalType": "address",
          "name": "account",
          "type": "address"
        },
        {
          "internalType": "address",
          "name": "operator",
          "type": "address"
        }
      ],
      "name": "isApprovedForAll",
      "outputs": [
        {
          "internalType": "bool",
          "name": "",
          "type": "bool"
        }
      ],
      "stateMutability": "view",
      "type": "function"
    },
    {
      "inputs": [],
      "name": "manager",
      "outputs": [
        {
          "internalType": "address",
          "name": "",
          "type": "address"
        }
      ],
      "stateMutability": "view",
      "type": "function"
    },
    {
      "inputs": [
        {
          "internalType": "address",
          "name": "account",
          "type": "address"
        },
        {
          "internalType": "uint256",
          "name": "tokenId",
          "type": "uint256"
        },
        {
          "internalType": "uint256",
          "name": "amount",
          "type": "uint256"
        }
      ],
      "name": "mint",
      "outputs": [],
      "stateMutability": "nonpayable",
      "type": "function"
    },
    {
      "inputs": [],
      "name": "name",
      "outputs": [
        {
          "internalType": "string",
          "name": "",
          "type": "string"
        }
      ],
      "stateMutability": "view",
      "type": "function"
    },
    {
      "inputs": [],
      "name": "owner",
      "outputs": [
        {
          "internalType": "address",
          "name": "",
          "type": "address"
        }
      ],
      "stateMutability": "view",
      "type": "function"
    },
    {
      "inputs": [],
      "name": "renounceOwnership",
      "outputs": [],
      "stateMutability": "nonpayable",
      "type": "function"
    },
    {
      "inputs": [
        {
          "internalType": "uint256",
          "name": "tokenId",
          "type": "uint256"
        },
        {
          "internalType": "uint256",
          "name": "salePrice",
          "type": "uint256"
        }
      ],
      "name": "royaltyInfo",
      "outputs": [
        {
          "internalType": "address",
          "name": "receiver",
          "type": "address"
        },
        {
          "internalType": "uint256",
          "name": "royaltyAmount",
          "type": "uint256"
        }
      ],
      "stateMutability": "view",
      "type": "function"
    },
    {
      "inputs": [
        {
          "internalType": "address",
          "name": "from",
          "type": "address"
        },
        {
          "internalType": "address",
          "name": "to",
          "type": "address"
        },
        {
          "internalType": "uint256[]",
          "name": "ids",
          "type": "uint256[]"
        },
        {
          "internalType": "uint256[]",
          "name": "amounts",
          "type": "uint256[]"
        },
        {
          "internalType": "bytes",
          "name": "data",
          "type": "bytes"
        }
      ],
      "name": "safeBatchTransferFrom",
      "outputs": [],
      "stateMutability": "nonpayable",
      "type": "function"
    },
    {
      "inputs": [
        {
          "internalType": "address",
          "name": "from",
          "type": "address"
        },
        {
          "internalType": "address",
          "name": "to",
          "type": "address"
        },
        {
          "internalType": "uint256",
          "name": "id",
          "type": "uint256"
        },
        {
          "internalType": "uint256",
          "name": "amount",
          "type": "uint256"
        },
        {
          "internalType": "bytes",
          "name": "data",
          "type": "bytes"
        }
      ],
      "name": "safeTransferFrom",
      "outputs": [],
      "stateMutability": "nonpayable",
      "type": "function"
    },
    {
      "inputs": [
        {
          "internalType": "address",
          "name": "operator",
          "type": "address"
        },
        {
          "internalType": "bool",
          "name": "approved",
          "type": "bool"
        }
      ],
      "name": "setApprovalForAll",
      "outputs": [],
      "stateMutability": "nonpayable",
      "type": "function"
    },
    {
      "inputs": [
        {
          "internalType": "address",
          "name": "_manager",
          "type": "address"
        }
      ],
      "name": "setManager",
      "outputs": [],
      "stateMutability": "nonpayable",
      "type": "function"
    },
    {
      "inputs": [
        {
          "internalType": "uint256",
          "name": "collectionId",
          "type": "uint256"
        },
        {
          "internalType": "bool",
          "name": "enabled",
          "type": "bool"
        }
      ],
      "name": "setMintingEnabled",
      "outputs": [],
      "stateMutability": "nonpayable",
      "type": "function"
    },
    {
      "inputs": [
        {
          "internalType": "uint256",
          "name": "tokenId",
          "type": "uint256"
        },
        {
          "internalType": "string",
          "name": "newURI",
          "type": "string"
        }
      ],
      "name": "setTokenURI",
      "outputs": [],
      "stateMutability": "nonpayable",
      "type": "function"
    },
    {
      "inputs": [
        {
          "internalType": "bytes4",
          "name": "interfaceId",
          "type": "bytes4"
        }
      ],
      "name": "supportsInterface",
      "outputs": [
        {
          "internalType": "bool",
          "name": "",
          "type": "bool"
        }
      ],
      "stateMutability": "view",
      "type": "function"
    },
    {
      "inputs": [],
      "name": "tokenIdTracker",
      "outputs": [
        {
          "internalType": "uint256",
          "name": "_value",
          "type": "uint256"
        }
      ],
      "stateMutability": "view",
      "type": "function"
    },
    {
      "inputs": [
        {
          "internalType": "uint256",
          "name": "",
          "type": "uint256"
        }
      ],
      "name": "tokenMintCount",
      "outputs": [
        {
          "internalType": "uint256",
          "name": "",
          "type": "uint256"
        }
      ],
      "stateMutability": "view",
      "type": "function"
    },
    {
      "inputs": [
        {
          "internalType": "uint256",
          "name": "",
          "type": "uint256"
        }
      ],
      "name": "tokenMinterCount",
      "outputs": [
        {
          "internalType": "uint256",
          "name": "",
          "type": "uint256"
        }
      ],
      "stateMutability": "view",
      "type": "function"
    },
    {
      "inputs": [
        {
          "internalType": "uint256",
          "name": "",
          "type": "uint256"
        }
      ],
      "name": "tokenRoyaltyRecipients",
      "outputs": [
        {
          "internalType": "address payable",
          "name": "",
          "type": "address"
        }
      ],
      "stateMutability": "view",
      "type": "function"
    },
    {
      "inputs": [
        {
          "internalType": "uint256",
          "name": "",
          "type": "uint256"
        }
      ],
      "name": "tokenToCollection",
      "outputs": [
        {
          "internalType": "uint256",
          "name": "",
          "type": "uint256"
        }
      ],
      "stateMutability": "view",
      "type": "function"
    },
    {
      "inputs": [
        {
          "internalType": "address",
          "name": "newOwner",
          "type": "address"
        }
      ],
      "name": "transferOwnership",
      "outputs": [],
      "stateMutability": "nonpayable",
      "type": "function"
    },
    {
      "inputs": [
        {
          "internalType": "uint256",
          "name": "tokenId",
          "type": "uint256"
        }
      ],
      "name": "uri",
      "outputs": [
        {
          "internalType": "string",
          "name": "",
          "type": "string"
        }
      ],
      "stateMutability": "view",
      "type": "function"
    }
  ],
  "bytecode": "0x60c0604052600e60808190526d534849465420434150545552455360901b60a0908152620000319160059190620000fd565b503480156200003f57600080fd5b506040805160208101909152600081526200005a8162000092565b506200006633620000ab565b600480546001600160a01b031916739ba4ae5378202f80a2961faad907759443c60122179055620001e0565b8051620000a7906002906020840190620000fd565b5050565b600380546001600160a01b038381166001600160a01b0319831681179093556040519116919082907f8be0079c531659141344cd1fd0a4f28419497f9722a3daafe3b4186f6b6457e090600090a35050565b8280546200010b90620001a3565b90600052602060002090601f0160209004810192826200012f57600085556200017a565b82601f106200014a57805160ff19168380011785556200017a565b828001600101855582156200017a579182015b828111156200017a5782518255916020019190600101906200015d565b50620001889291506200018c565b5090565b5b808211156200018857600081556001016200018d565b600181811c90821680620001b857607f821691505b60208210811415620001da57634e487b7160e01b600052602260045260246000fd5b50919050565b6128d480620001f06000396000f3fe608060405234801561001057600080fd5b50600436106101c35760003560e01c80634e1273f4116100f9578063c2c36ffb11610097578063e985e9c511610071578063e985e9c51461040e578063f242432a1461044a578063f2fde38b1461045d578063fdbda0ec1461047057600080fd5b8063c2c36ffb146103d3578063d0ebdbe7146103f3578063e8a3d4851461040657600080fd5b80638da5cb5b116100d35780638da5cb5b146103895780638fc86a7b1461039a578063a22cb465146103ad578063b2472507146103c057600080fd5b80634e1273f4146103415780634f27e78714610361578063715018a61461038157600080fd5b8063195f78ae116101665780632a55205a116101405780632a55205a146102a85780632eb2c2d6146102da5780633264673f146102ed578063481c6a751461032e57600080fd5b8063195f78ae1461026b5780631e3b4ac81461028b578063241b40711461029557600080fd5b806306fdde03116101a257806306fdde031461021b5780630e89341c14610230578063156e29f614610243578063162094c41461025857600080fd5b8062fdd58e146101c857806301ffc9a7146101ee57806302bf3d5614610211575b600080fd5b6101db6101d6366004611c57565b610495565b6040519081526020015b60405180910390f35b6102016101fc366004611c99565b61052b565b60405190151581526020016101e5565b6007546101db9081565b61022361057d565b6040516101e59190611d19565b61022361023e366004611d2c565b61060b565b610256610251366004611d45565b6106ad565b005b610256610266366004611e31565b6108ae565b6101db610279366004611d2c565b600e6020526000908152604090205481565b6006546101db9081565b6101db6102a3366004611e8d565b610979565b6102bb6102b6366004611f38565b610ab2565b604080516001600160a01b0390931683526020830191909152016101e5565b6102566102e8366004611fef565b610afe565b6103166102fb366004611d2c565b600d602052600090815260409020546001600160a01b031681565b6040516001600160a01b0390911681526020016101e5565b600454610316906001600160a01b031681565b61035461034f36600461209d565b610b4a565b6040516101e5919061219b565b6101db61036f366004611d2c565b600a6020526000908152604090205481565b610256610c74565b6003546001600160a01b0316610316565b6101db6103a83660046121ae565b610c88565b6102566103bb366004612209565b610e07565b6102566103ce36600461223e565b610e16565b6101db6103e1366004611d2c565b600b6020526000908152604090205481565b610256610401366004612261565b610eeb565b610223610f4c565b61020161041c36600461227e565b6001600160a01b03918216600090815260016020908152604080832093909416825291909152205460ff1690565b6102566104583660046122b7565b610f9a565b61025661046b366004612261565b610fdf565b61048361047e366004611d2c565b611058565b6040516101e596959493929190612320565b60006001600160a01b0383166105055760405162461bcd60e51b815260206004820152602a60248201527f455243313135353a2061646472657373207a65726f206973206e6f742061207660448201526930b634b21037bbb732b960b11b60648201526084015b60405180910390fd5b506000908152602081815260408083206001600160a01b03949094168352929052205490565b60006001600160e01b03198216636cdb3d1360e11b148061055c57506001600160e01b031982166303a24d0760e21b145b8061057757506301ffc9a760e01b6001600160e01b03198316145b92915050565b6005805461058a9061237a565b80601f01602080910402602001604051908101604052809291908181526020018280546105b69061237a565b80156106035780601f106105d857610100808354040283529160200191610603565b820191906000526020600020905b8154815290600101906020018083116105e657829003601f168201915b505050505081565b60008181526009602052604090208054606091906106289061237a565b80601f01602080910402602001604051908101604052809291908181526020018280546106549061237a565b80156106a15780601f10610676576101008083540402835291602001916106a1565b820191906000526020600020905b81548152906001019060200180831161068457829003601f168201915b50505050509050919050565b6000828152600e602090815260408083205480845260089092529091206002015460ff166107315760405162461bcd60e51b815260206004820152602b60248201527f4d696e74696e67206973206e6f7420656e61626c656420666f7220746869732060448201526a31b7b63632b1ba34b7b71760a91b60648201526084016104fc565b60008181526008602052604090206003015461074f426103e86123cb565b106107ba5760405162461bcd60e51b815260206004820152603560248201527f596f7527726520746f6f206c6174652e204d696e74696e6720666f7220746869604482015274399031b7b63632b1ba34b7b71032bc3834b932b21760591b60648201526084016104fc565b6107d58484846040518060200160405280600081525061122d565b6000838152600a602052604081208054916107ef836123ea565b90915550506000838152600c602090815260408083206001600160a01b038816845290915290205460ff16610867576000838152600c602090815260408083206001600160a01b03881684528252808320805460ff19166001179055858352600b9091528120805491610861836123ea565b91905055505b604080518481526001600160a01b03861660208201527f3a5398bda6f1f57d6c96834fa9bf02b5517bdc847d14312015a917ba421c31c9910160405180910390a150505050565b6003546001600160a01b03163314806108d157506004546001600160a01b031633145b6108ed5760405162461bcd60e51b81526004016104fc90612405565b600082815260096020526040812080546109069061237a565b9050116109555760405162461bcd60e51b815260206004820152601760248201527f546f6b656e20494420646f6573206e6f7420657869737400000000000000000060448201526064016104fc565b6000828152600960209081526040909120825161097492840190611ba9565b505050565b600061098d6003546001600160a01b031690565b6001600160a01b0316336001600160a01b031614806109b657506004546001600160a01b031633145b6109d25760405162461bcd60e51b81526004016104fc90612405565b6109e0600680546001019055565b60006109eb60065490565b6040805160c0810182528a815260208082018b905289151582840152606082018990526080820188905260a08201879052600084815260088252929092208151805194955091939092610a42928492910190611ba9565b506020828101518051610a5b9260018501920190611ba9565b50604082015160028201805460ff1916911515919091179055606082015160038201556080820151600482015560a08201518051610aa3916005840191602090910190611ba9565b50919998505050505050505050565b600082815260086020908152604080832060040154600d9092528220548291906001600160a01b0316612710610ae883876123cb565b610af29190612433565b90969095509350505050565b6001600160a01b038516331480610b1a5750610b1a853361041c565b610b365760405162461bcd60e51b81526004016104fc90612455565b610b438585858585611341565b5050505050565b60608151835114610baf5760405162461bcd60e51b815260206004820152602960248201527f455243313135353a206163636f756e747320616e6420696473206c656e677468604482015268040dad2e6dac2e8c6d60bb1b60648201526084016104fc565b6000835167ffffffffffffffff811115610bcb57610bcb611d7a565b604051908082528060200260200182016040528015610bf4578160200160208202803683370190505b50905060005b8451811015610c6c57610c3f858281518110610c1857610c186124a3565b6020026020010151858381518110610c3257610c326124a3565b6020026020010151610495565b828281518110610c5157610c516124a3565b6020908102919091010152610c65816123ea565b9050610bfa565b509392505050565b610c7c61151e565b610c866000611578565b565b6000610c9c6003546001600160a01b031690565b6001600160a01b0316336001600160a01b03161480610cc557506004546001600160a01b031633145b610ce15760405162461bcd60e51b81526004016104fc90612405565b610cef600780546001019055565b6000610cfa60075490565b60008181526009602090815260409091208651929350610d1e929091870190611ba9565b50610d3b338260016040518060200160405280600081525061122d565b604080518281523360208201527f3a5398bda6f1f57d6c96834fa9bf02b5517bdc847d14312015a917ba421c31c9910160405180910390a16000818152600e60209081526040808320889055600a9091528120805491610d9a836123ea565b90915550506000818152600d6020908152604080832080546001600160a01b0319166001600160a01b038816179055600c82528083203384528252808320805460ff19166001179055838352600b9091528120805491610df9836123ea565b909155509095945050505050565b610e123383836115ca565b5050565b6003546001600160a01b0316331480610e3957506004546001600160a01b031633145b610e555760405162461bcd60e51b81526004016104fc90612405565b60008281526008602052604090206002015460ff1615158115151415610ec85760405162461bcd60e51b815260206004820152602260248201527f416c72656164792073657420746f207468652070726f76696465642076616c75604482015261329760f11b60648201526084016104fc565b600091825260086020526040909120600201805460ff1916911515919091179055565b6003546001600160a01b0316331480610f0e57506004546001600160a01b031633145b610f2a5760405162461bcd60e51b81526004016104fc90612405565b600480546001600160a01b0319166001600160a01b0392909216919091179055565b6060600060405180610100016040528060dd81526020016127c260dd91399050610f75816116ab565b604051602001610f8591906124b9565b60405160208183030381529060405291505090565b6001600160a01b038516331480610fb65750610fb6853361041c565b610fd25760405162461bcd60e51b81526004016104fc90612455565b610b4385858585856117ff565b610fe761151e565b6001600160a01b03811661104c5760405162461bcd60e51b815260206004820152602660248201527f4f776e61626c653a206e6577206f776e657220697320746865207a65726f206160448201526564647265737360d01b60648201526084016104fc565b61105581611578565b50565b6008602052600090815260409020805481906110739061237a565b80601f016020809104026020016040519081016040528092919081815260200182805461109f9061237a565b80156110ec5780601f106110c1576101008083540402835291602001916110ec565b820191906000526020600020905b8154815290600101906020018083116110cf57829003601f168201915b5050505050908060010180546111019061237a565b80601f016020809104026020016040519081016040528092919081815260200182805461112d9061237a565b801561117a5780601f1061114f5761010080835404028352916020019161117a565b820191906000526020600020905b81548152906001019060200180831161115d57829003601f168201915b505050600284015460038501546004860154600587018054969760ff90941696929550909350906111aa9061237a565b80601f01602080910402602001604051908101604052809291908181526020018280546111d69061237a565b80156112235780601f106111f857610100808354040283529160200191611223565b820191906000526020600020905b81548152906001019060200180831161120657829003601f168201915b5050505050905086565b6001600160a01b03841661128d5760405162461bcd60e51b815260206004820152602160248201527f455243313135353a206d696e7420746f20746865207a65726f206164647265736044820152607360f81b60648201526084016104fc565b33600061129985611929565b905060006112a685611929565b90506000868152602081815260408083206001600160a01b038b168452909152812080548792906112d89084906124fe565b909155505060408051878152602081018790526001600160a01b03808a1692600092918716917fc3d58168c5ae7397731d063d5bbf3d657854427343f4c083240f7aacaa2d0f62910160405180910390a461133883600089898989611974565b50505050505050565b81518351146113a35760405162461bcd60e51b815260206004820152602860248201527f455243313135353a2069647320616e6420616d6f756e7473206c656e677468206044820152670dad2e6dac2e8c6d60c31b60648201526084016104fc565b6001600160a01b0384166113c95760405162461bcd60e51b81526004016104fc90612516565b3360005b84518110156114b05760008582815181106113ea576113ea6124a3565b602002602001015190506000858381518110611408576114086124a3565b602090810291909101810151600084815280835260408082206001600160a01b038e1683529093529190912054909150818110156114585760405162461bcd60e51b81526004016104fc9061255b565b6000838152602081815260408083206001600160a01b038e8116855292528083208585039055908b168252812080548492906114959084906124fe565b92505081905550505050806114a9906123ea565b90506113cd565b50846001600160a01b0316866001600160a01b0316826001600160a01b03167f4a39dc06d4c0dbc64b70af90fd698a233a518aa5d07e595d983b8c0526c8f7fb87876040516115009291906125a5565b60405180910390a4611516818787878787611adf565b505050505050565b6003546001600160a01b03163314610c865760405162461bcd60e51b815260206004820181905260248201527f4f776e61626c653a2063616c6c6572206973206e6f7420746865206f776e657260448201526064016104fc565b600380546001600160a01b038381166001600160a01b0319831681179093556040519116919082907f8be0079c531659141344cd1fd0a4f28419497f9722a3daafe3b4186f6b6457e090600090a35050565b816001600160a01b0316836001600160a01b0316141561163e5760405162461bcd60e51b815260206004820152602960248201527f455243313135353a2073657474696e6720617070726f76616c20737461747573604482015268103337b91039b2b63360b91b60648201526084016104fc565b6001600160a01b03838116600081815260016020908152604080832094871680845294825291829020805460ff191686151590811790915591519182527f17307eab39ab6107e8899845ad3d59bd9653f200f220920489ca2b5937696c31910160405180910390a3505050565b60608151600014156116cb57505060408051602081019091526000815290565b600060405180606001604052806040815260200161278260409139905060006003845160026116fa91906124fe565b6117049190612433565b61170f9060046123cb565b67ffffffffffffffff81111561172757611727611d7a565b6040519080825280601f01601f191660200182016040528015611751576020820181803683370190505b509050600182016020820185865187015b808210156117bd576003820191508151603f8160121c168501518453600184019350603f81600c1c168501518453600184019350603f8160061c168501518453600184019350603f8116850151845350600183019250611762565b50506003865106600181146117d957600281146117ec576117f4565b603d6001830353603d60028303536117f4565b603d60018303535b509195945050505050565b6001600160a01b0384166118255760405162461bcd60e51b81526004016104fc90612516565b33600061183185611929565b9050600061183e85611929565b90506000868152602081815260408083206001600160a01b038c168452909152902054858110156118815760405162461bcd60e51b81526004016104fc9061255b565b6000878152602081815260408083206001600160a01b038d8116855292528083208985039055908a168252812080548892906118be9084906124fe565b909155505060408051888152602081018890526001600160a01b03808b16928c821692918816917fc3d58168c5ae7397731d063d5bbf3d657854427343f4c083240f7aacaa2d0f62910160405180910390a461191e848a8a8a8a8a611974565b505050505050505050565b60408051600180825281830190925260609160009190602080830190803683370190505090508281600081518110611963576119636124a3565b602090810291909101015292915050565b6001600160a01b0384163b156115165760405163f23a6e6160e01b81526001600160a01b0385169063f23a6e61906119b890899089908890889088906004016125d3565b602060405180830381600087803b1580156119d257600080fd5b505af1925050508015611a02575060408051601f3d908101601f191682019092526119ff91810190612618565b60015b611aaf57611a0e612635565b806308c379a01415611a485750611a23612651565b80611a2e5750611a4a565b8060405162461bcd60e51b81526004016104fc9190611d19565b505b60405162461bcd60e51b815260206004820152603460248201527f455243313135353a207472616e7366657220746f206e6f6e2d455243313135356044820152732932b1b2b4bb32b91034b6b83632b6b2b73a32b960611b60648201526084016104fc565b6001600160e01b0319811663f23a6e6160e01b146113385760405162461bcd60e51b81526004016104fc906126db565b6001600160a01b0384163b156115165760405163bc197c8160e01b81526001600160a01b0385169063bc197c8190611b239089908990889088908890600401612723565b602060405180830381600087803b158015611b3d57600080fd5b505af1925050508015611b6d575060408051601f3d908101601f19168201909252611b6a91810190612618565b60015b611b7957611a0e612635565b6001600160e01b0319811663bc197c8160e01b146113385760405162461bcd60e51b81526004016104fc906126db565b828054611bb59061237a565b90600052602060002090601f016020900481019282611bd75760008555611c1d565b82601f10611bf057805160ff1916838001178555611c1d565b82800160010185558215611c1d579182015b82811115611c1d578251825591602001919060010190611c02565b50611c29929150611c2d565b5090565b5b80821115611c295760008155600101611c2e565b6001600160a01b038116811461105557600080fd5b60008060408385031215611c6a57600080fd5b8235611c7581611c42565b946020939093013593505050565b6001600160e01b03198116811461105557600080fd5b600060208284031215611cab57600080fd5b8135611cb681611c83565b9392505050565b60005b83811015611cd8578181015183820152602001611cc0565b83811115611ce7576000848401525b50505050565b60008151808452611d05816020860160208601611cbd565b601f01601f19169290920160200192915050565b602081526000611cb66020830184611ced565b600060208284031215611d3e57600080fd5b5035919050565b600080600060608486031215611d5a57600080fd5b8335611d6581611c42565b95602085013595506040909401359392505050565b634e487b7160e01b600052604160045260246000fd5b601f8201601f1916810167ffffffffffffffff81118282101715611db657611db6611d7a565b6040525050565b600082601f830112611dce57600080fd5b813567ffffffffffffffff811115611de857611de8611d7a565b604051611dff601f8301601f191660200182611d90565b818152846020838601011115611e1457600080fd5b816020850160208301376000918101602001919091529392505050565b60008060408385031215611e4457600080fd5b82359150602083013567ffffffffffffffff811115611e6257600080fd5b611e6e85828601611dbd565b9150509250929050565b80358015158114611e8857600080fd5b919050565b60008060008060008060c08789031215611ea657600080fd5b863567ffffffffffffffff80821115611ebe57600080fd5b611eca8a838b01611dbd565b97506020890135915080821115611ee057600080fd5b611eec8a838b01611dbd565b9650611efa60408a01611e78565b9550606089013594506080890135935060a0890135915080821115611f1e57600080fd5b50611f2b89828a01611dbd565b9150509295509295509295565b60008060408385031215611f4b57600080fd5b50508035926020909101359150565b600067ffffffffffffffff821115611f7457611f74611d7a565b5060051b60200190565b600082601f830112611f8f57600080fd5b81356020611f9c82611f5a565b604051611fa98282611d90565b83815260059390931b8501820192828101915086841115611fc957600080fd5b8286015b84811015611fe45780358352918301918301611fcd565b509695505050505050565b600080600080600060a0868803121561200757600080fd5b853561201281611c42565b9450602086013561202281611c42565b9350604086013567ffffffffffffffff8082111561203f57600080fd5b61204b89838a01611f7e565b9450606088013591508082111561206157600080fd5b61206d89838a01611f7e565b9350608088013591508082111561208357600080fd5b5061209088828901611dbd565b9150509295509295909350565b600080604083850312156120b057600080fd5b823567ffffffffffffffff808211156120c857600080fd5b818501915085601f8301126120dc57600080fd5b813560206120e982611f5a565b6040516120f68282611d90565b83815260059390931b850182019282810191508984111561211657600080fd5b948201945b8386101561213d57853561212e81611c42565b8252948201949082019061211b565b9650508601359250508082111561215357600080fd5b50611e6e85828601611f7e565b600081518084526020808501945080840160005b8381101561219057815187529582019590820190600101612174565b509495945050505050565b602081526000611cb66020830184612160565b6000806000606084860312156121c357600080fd5b83359250602084013567ffffffffffffffff8111156121e157600080fd5b6121ed86828701611dbd565b92505060408401356121fe81611c42565b809150509250925092565b6000806040838503121561221c57600080fd5b823561222781611c42565b915061223560208401611e78565b90509250929050565b6000806040838503121561225157600080fd5b8235915061223560208401611e78565b60006020828403121561227357600080fd5b8135611cb681611c42565b6000806040838503121561229157600080fd5b823561229c81611c42565b915060208301356122ac81611c42565b809150509250929050565b600080600080600060a086880312156122cf57600080fd5b85356122da81611c42565b945060208601356122ea81611c42565b93506040860135925060608601359150608086013567ffffffffffffffff81111561231457600080fd5b61209088828901611dbd565b60c08152600061233360c0830189611ced565b82810360208401526123458189611ced565b9050861515604084015285606084015284608084015282810360a084015261236d8185611ced565b9998505050505050505050565b600181811c9082168061238e57607f821691505b602082108114156123af57634e487b7160e01b600052602260045260246000fd5b50919050565b634e487b7160e01b600052601160045260246000fd5b60008160001904831182151516156123e5576123e56123b5565b500290565b60006000198214156123fe576123fe6123b5565b5060010190565b6020808252601490820152732737ba1037bbb732b91037b91036b0b730b3b2b960611b604082015260600190565b60008261245057634e487b7160e01b600052601260045260246000fd5b500490565b6020808252602e908201527f455243313135353a2063616c6c6572206973206e6f7420746f6b656e206f776e60408201526d195c881bdc88185c1c1c9bdd995960921b606082015260800190565b634e487b7160e01b600052603260045260246000fd5b7f646174613a6170706c69636174696f6e2f6a736f6e3b6261736536342c0000008152600082516124f181601d850160208701611cbd565b91909101601d0192915050565b60008219821115612511576125116123b5565b500190565b60208082526025908201527f455243313135353a207472616e7366657220746f20746865207a65726f206164604082015264647265737360d81b606082015260800190565b6020808252602a908201527f455243313135353a20696e73756666696369656e742062616c616e636520666f60408201526939103a3930b739b332b960b11b606082015260800190565b6040815260006125b86040830185612160565b82810360208401526125ca8185612160565b95945050505050565b6001600160a01b03868116825285166020820152604081018490526060810183905260a06080820181905260009061260d90830184611ced565b979650505050505050565b60006020828403121561262a57600080fd5b8151611cb681611c83565b600060033d111561264e5760046000803e5060005160e01c5b90565b600060443d101561265f5790565b6040516003193d81016004833e81513d67ffffffffffffffff816024840111818411171561268f57505050505090565b82850191508151818111156126a75750505050505090565b843d87010160208285010111156126c15750505050505090565b6126d060208286010187611d90565b509095945050505050565b60208082526028908201527f455243313135353a204552433131353552656365697665722072656a656374656040820152676420746f6b656e7360c01b606082015260800190565b6001600160a01b0386811682528516602082015260a06040820181905260009061274f90830186612160565b82810360608401526127618186612160565b905082810360808401526127758185611ced565b9897505050505050505056fe4142434445464748494a4b4c4d4e4f505152535455565758595a6162636465666768696a6b6c6d6e6f707172737475767778797a303132333435363738392b2f7b226e616d65223a20225348494654204341505455524553222c226465736372697074696f6e223a2022436c61696d20616e206f66662d636861696e2070726f6f662d6f662d776f726b204e465420617274776f726b20636170747572696e6720746865206c61626f7220706572666f726d6564206c69766520627920616e2061637475616c20776f726b65722c207369676e656420616e642074696d657374616d70656420627920534849465420696e207468652063697479207468652049524c20706572666f726d616e63652074616b657320706c6163652e227da26469706673582212209c02126efc6a61cf9139bd3487ae384eb55192121d7a8e9968847b1e4eaeff2364736f6c63430008090033",
  "linkReferences": {},
  "deployedLinkReferences": {}
}