{
  "_format": "hh-sol-artifact-1",
  "contractName": "SHIFTCAPTURES",
  "sourceName": "contracts/SHIFTCAPTURES.sol",
  "abi": [
    {
      "inputs": [],
      "stateMutability": "nonpayable",
      "type": "constructor"
    },
    {
      "anonymous": false,
      "inputs": [
        {
          "indexed": true,
          "internalType": "address",
          "name": "account",
          "type": "address"
        },
        {
          "indexed": true,
          "internalType": "address",
          "name": "operator",
          "type": "address"
        },
        {
          "indexed": false,
          "internalType": "bool",
          "name": "approved",
          "type": "bool"
        }
      ],
      "name": "ApprovalForAll",
      "type": "event"
    },
    {
      "anonymous": false,
      "inputs": [
        {
          "indexed": true,
          "internalType": "address",
          "name": "previousOwner",
          "type": "address"
        },
        {
          "indexed": true,
          "internalType": "address",
          "name": "newOwner",
          "type": "address"
        }
      ],
      "name": "OwnershipTransferred",
      "type": "event"
    },
    {
      "anonymous": false,
      "inputs": [
        {
          "indexed": false,
          "internalType": "uint256",
          "name": "tokenId",
          "type": "uint256"
        },
        {
          "indexed": false,
          "internalType": "address",
          "name": "minter",
          "type": "address"
        }
      ],
      "name": "TokenMinted",
      "type": "event"
    },
    {
      "anonymous": false,
      "inputs": [
        {
          "indexed": true,
          "internalType": "address",
          "name": "operator",
          "type": "address"
        },
        {
          "indexed": true,
          "internalType": "address",
          "name": "from",
          "type": "address"
        },
        {
          "indexed": true,
          "internalType": "address",
          "name": "to",
          "type": "address"
        },
        {
          "indexed": false,
          "internalType": "uint256[]",
          "name": "ids",
          "type": "uint256[]"
        },
        {
          "indexed": false,
          "internalType": "uint256[]",
          "name": "values",
          "type": "uint256[]"
        }
      ],
      "name": "TransferBatch",
      "type": "event"
    },
    {
      "anonymous": false,
      "inputs": [
        {
          "indexed": true,
          "internalType": "address",
          "name": "operator",
          "type": "address"
        },
        {
          "indexed": true,
          "internalType": "address",
          "name": "from",
          "type": "address"
        },
        {
          "indexed": true,
          "internalType": "address",
          "name": "to",
          "type": "address"
        },
        {
          "indexed": false,
          "internalType": "uint256",
          "name": "id",
          "type": "uint256"
        },
        {
          "indexed": false,
          "internalType": "uint256",
          "name": "value",
          "type": "uint256"
        }
      ],
      "name": "TransferSingle",
      "type": "event"
    },
    {
      "anonymous": false,
      "inputs": [
        {
          "indexed": false,
          "internalType": "string",
          "name": "value",
          "type": "string"
        },
        {
          "indexed": true,
          "internalType": "uint256",
          "name": "id",
          "type": "uint256"
        }
      ],
      "name": "URI",
      "type": "event"
    },
    {
      "inputs": [
        {
          "internalType": "address",
          "name": "account",
          "type": "address"
        },
        {
          "internalType": "uint256",
          "name": "id",
          "type": "uint256"
        }
      ],
      "name": "balanceOf",
      "outputs": [
        {
          "internalType": "uint256",
          "name": "",
          "type": "uint256"
        }
      ],
      "stateMutability": "view",
      "type": "function"
    },
    {
      "inputs": [
        {
          "internalType": "address[]",
          "name": "accounts",
          "type": "address[]"
        },
        {
          "internalType": "uint256[]",
          "name": "ids",
          "type": "uint256[]"
        }
      ],
      "name": "balanceOfBatch",
      "outputs": [
        {
          "internalType": "uint256[]",
          "name": "",
          "type": "uint256[]"
        }
      ],
      "stateMutability": "view",
      "type": "function"
    },
    {
      "inputs": [],
      "name": "collectionIdTracker",
      "outputs": [
        {
          "internalType": "uint256",
          "name": "_value",
          "type": "uint256"
        }
      ],
      "stateMutability": "view",
      "type": "function"
    },
    {
      "inputs": [
        {
          "internalType": "uint256",
          "name": "",
          "type": "uint256"
        }
      ],
      "name": "collections",
      "outputs": [
        {
          "internalType": "string",
          "name": "title",
          "type": "string"
        },
        {
          "internalType": "string",
          "name": "employer",
          "type": "string"
        },
        {
          "internalType": "bool",
          "name": "mintingEnabled",
          "type": "bool"
        },
        {
          "internalType": "uint256",
          "name": "closingDate",
          "type": "uint256"
        },
        {
          "internalType": "uint256",
          "name": "royaltyPercentage",
          "type": "uint256"
        },
        {
          "internalType": "string",
          "name": "place",
          "type": "string"
        }
      ],
      "stateMutability": "view",
      "type": "function"
    },
    {
      "inputs": [],
      "name": "contractURI",
      "outputs": [
        {
          "internalType": "string",
          "name": "",
          "type": "string"
        }
      ],
      "stateMutability": "pure",
      "type": "function"
    },
    {
      "inputs": [
        {
          "internalType": "string",
          "name": "title",
          "type": "string"
        },
        {
          "internalType": "string",
          "name": "employer",
          "type": "string"
        },
        {
          "internalType": "bool",
          "name": "mintingEnabled",
          "type": "bool"
        },
        {
          "internalType": "uint256",
          "name": "closingDate",
          "type": "uint256"
        },
        {
          "internalType": "uint256",
          "name": "royaltyPercentage",
          "type": "uint256"
        },
        {
          "internalType": "string",
          "name": "place",
          "type": "string"
        }
      ],
      "name": "createCollection",
      "outputs": [
        {
          "internalType": "uint256",
          "name": "",
          "type": "uint256"
        }
      ],
      "stateMutability": "nonpayable",
      "type": "function"
    },
    {
      "inputs": [
        {
          "internalType": "uint256",
          "name": "blueprintId",
          "type": "uint256"
        },
        {
          "internalType": "string",
          "name": "metadataURI",
          "type": "string"
        },
        {
          "internalType": "address payable",
          "name": "royaltyRecipient",
          "type": "address"
        }
      ],
      "name": "createShiftNFT",
      "outputs": [
        {
          "internalType": "uint256",
          "name": "",
          "type": "uint256"
        }
      ],
      "stateMutability": "nonpayable",
      "type": "function"
    },
    {
      "inputs": [],
      "name": "developer",
      "outputs": [
        {
          "internalType": "address",
          "name": "",
          "type": "address"
        }
      ],
      "stateMutability": "view",
      "type": "function"
    },
    {
      "inputs": [
        {
          "internalType": "address",
          "name": "account",
          "type": "address"
        },
        {
          "internalType": "address",
          "name": "operator",
          "type": "address"
        }
      ],
      "name": "isApprovedForAll",
      "outputs": [
        {
          "internalType": "bool",
          "name": "",
          "type": "bool"
        }
      ],
      "stateMutability": "view",
      "type": "function"
    },
    {
      "inputs": [
        {
          "internalType": "address",
          "name": "account",
          "type": "address"
        },
        {
          "internalType": "uint256",
          "name": "tokenId",
          "type": "uint256"
        },
        {
          "internalType": "uint256",
          "name": "amount",
          "type": "uint256"
        }
      ],
      "name": "mint",
      "outputs": [],
      "stateMutability": "nonpayable",
      "type": "function"
    },
    {
      "inputs": [],
      "name": "name",
      "outputs": [
        {
          "internalType": "string",
          "name": "",
          "type": "string"
        }
      ],
      "stateMutability": "view",
      "type": "function"
    },
    {
      "inputs": [],
      "name": "owner",
      "outputs": [
        {
          "internalType": "address",
          "name": "",
          "type": "address"
        }
      ],
      "stateMutability": "view",
      "type": "function"
    },
    {
      "inputs": [],
      "name": "renounceOwnership",
      "outputs": [],
      "stateMutability": "nonpayable",
      "type": "function"
    },
    {
      "inputs": [
        {
          "internalType": "uint256",
          "name": "tokenId",
          "type": "uint256"
        },
        {
          "internalType": "uint256",
          "name": "salePrice",
          "type": "uint256"
        }
      ],
      "name": "royaltyInfo",
      "outputs": [
        {
          "internalType": "address",
          "name": "receiver",
          "type": "address"
        },
        {
          "internalType": "uint256",
          "name": "royaltyAmount",
          "type": "uint256"
        }
      ],
      "stateMutability": "view",
      "type": "function"
    },
    {
      "inputs": [
        {
          "internalType": "address",
          "name": "from",
          "type": "address"
        },
        {
          "internalType": "address",
          "name": "to",
          "type": "address"
        },
        {
          "internalType": "uint256[]",
          "name": "ids",
          "type": "uint256[]"
        },
        {
          "internalType": "uint256[]",
          "name": "amounts",
          "type": "uint256[]"
        },
        {
          "internalType": "bytes",
          "name": "data",
          "type": "bytes"
        }
      ],
      "name": "safeBatchTransferFrom",
      "outputs": [],
      "stateMutability": "nonpayable",
      "type": "function"
    },
    {
      "inputs": [
        {
          "internalType": "address",
          "name": "from",
          "type": "address"
        },
        {
          "internalType": "address",
          "name": "to",
          "type": "address"
        },
        {
          "internalType": "uint256",
          "name": "id",
          "type": "uint256"
        },
        {
          "internalType": "uint256",
          "name": "amount",
          "type": "uint256"
        },
        {
          "internalType": "bytes",
          "name": "data",
          "type": "bytes"
        }
      ],
      "name": "safeTransferFrom",
      "outputs": [],
      "stateMutability": "nonpayable",
      "type": "function"
    },
    {
      "inputs": [
        {
          "internalType": "address",
          "name": "operator",
          "type": "address"
        },
        {
          "internalType": "bool",
          "name": "approved",
          "type": "bool"
        }
      ],
      "name": "setApprovalForAll",
      "outputs": [],
      "stateMutability": "nonpayable",
      "type": "function"
    },
    {
      "inputs": [
        {
          "internalType": "address",
          "name": "_developer",
          "type": "address"
        }
      ],
      "name": "setDeveloper",
      "outputs": [],
      "stateMutability": "nonpayable",
      "type": "function"
    },
    {
      "inputs": [
        {
          "internalType": "uint256",
          "name": "collectionId",
          "type": "uint256"
        },
        {
          "internalType": "bool",
          "name": "enabled",
          "type": "bool"
        }
      ],
      "name": "setMintingEnabled",
      "outputs": [],
      "stateMutability": "nonpayable",
      "type": "function"
    },
    {
      "inputs": [
        {
          "internalType": "bytes4",
          "name": "interfaceId",
          "type": "bytes4"
        }
      ],
      "name": "supportsInterface",
      "outputs": [
        {
          "internalType": "bool",
          "name": "",
          "type": "bool"
        }
      ],
      "stateMutability": "view",
      "type": "function"
    },
    {
      "inputs": [],
      "name": "tokenIdTracker",
      "outputs": [
        {
          "internalType": "uint256",
          "name": "_value",
          "type": "uint256"
        }
      ],
      "stateMutability": "view",
      "type": "function"
    },
    {
      "inputs": [
        {
          "internalType": "uint256",
          "name": "",
          "type": "uint256"
        }
      ],
      "name": "tokenMintCount",
      "outputs": [
        {
          "internalType": "uint256",
          "name": "",
          "type": "uint256"
        }
      ],
      "stateMutability": "view",
      "type": "function"
    },
    {
      "inputs": [
        {
          "internalType": "uint256",
          "name": "",
          "type": "uint256"
        }
      ],
      "name": "tokenMinterCount",
      "outputs": [
        {
          "internalType": "uint256",
          "name": "",
          "type": "uint256"
        }
      ],
      "stateMutability": "view",
      "type": "function"
    },
    {
      "inputs": [
        {
          "internalType": "uint256",
          "name": "",
          "type": "uint256"
        }
      ],
      "name": "tokenRoyaltyRecipients",
      "outputs": [
        {
          "internalType": "address payable",
          "name": "",
          "type": "address"
        }
      ],
      "stateMutability": "view",
      "type": "function"
    },
    {
      "inputs": [
        {
          "internalType": "uint256",
          "name": "",
          "type": "uint256"
        }
      ],
      "name": "tokenToCollection",
      "outputs": [
        {
          "internalType": "uint256",
          "name": "",
          "type": "uint256"
        }
      ],
      "stateMutability": "view",
      "type": "function"
    },
    {
      "inputs": [
        {
          "internalType": "address",
          "name": "newOwner",
          "type": "address"
        }
      ],
      "name": "transferOwnership",
      "outputs": [],
      "stateMutability": "nonpayable",
      "type": "function"
    },
    {
      "inputs": [
        {
          "internalType": "uint256",
          "name": "tokenId",
          "type": "uint256"
        }
      ],
      "name": "uri",
      "outputs": [
        {
          "internalType": "string",
          "name": "",
          "type": "string"
        }
      ],
      "stateMutability": "view",
      "type": "function"
    }
  ],
  "bytecode": "0x60c0604052600e60808190526d534849465420434150545552455360901b60a0908152620000319160059190620000fd565b503480156200003f57600080fd5b506040805160208101909152600081526200005a8162000092565b506200006633620000ab565b600480546001600160a01b031916734a7d0d9d2ee22bb6efe1847cff07da4c5f2e3f22179055620001e0565b8051620000a7906002906020840190620000fd565b5050565b600380546001600160a01b038381166001600160a01b0319831681179093556040519116919082907f8be0079c531659141344cd1fd0a4f28419497f9722a3daafe3b4186f6b6457e090600090a35050565b8280546200010b90620001a3565b90600052602060002090601f0160209004810192826200012f57600085556200017a565b82601f106200014a57805160ff19168380011785556200017a565b828001600101855582156200017a579182015b828111156200017a5782518255916020019190600101906200015d565b50620001889291506200018c565b5090565b5b808211156200018857600081556001016200018d565b600181811c90821680620001b857607f821691505b60208210811415620001da57634e487b7160e01b600052602260045260246000fd5b50919050565b6127a080620001f06000396000f3fe608060405234801561001057600080fd5b50600436106101a85760003560e01c80634f27e787116100f9578063ca4b208b11610097578063f242432a11610071578063f242432a14610409578063f2fde38b1461041c578063fdbda0ec1461042f578063ff70fa491461045457600080fd5b8063ca4b208b146103b2578063e8a3d485146103c5578063e985e9c5146103cd57600080fd5b80638fc86a7b116100d35780638fc86a7b14610359578063a22cb4651461036c578063b24725071461037f578063c2c36ffb1461039257600080fd5b80634f27e78714610320578063715018a6146103405780638da5cb5b1461034857600080fd5b8063195f78ae116101665780632a55205a116101405780632a55205a1461027a5780632eb2c2d6146102ac5780633264673f146102bf5780634e1273f41461030057600080fd5b8063195f78ae1461023d5780631e3b4ac81461025d578063241b40711461026757600080fd5b8062fdd58e146101ad57806301ffc9a7146101d357806302bf3d56146101f657806306fdde03146102005780630e89341c14610215578063156e29f614610228575b600080fd5b6101c06101bb366004611b5e565b610467565b6040519081526020015b60405180910390f35b6101e66101e1366004611ba0565b6104fd565b60405190151581526020016101ca565b6007546101c09081565b61020861054f565b6040516101ca9190611c20565b610208610223366004611c33565b6105dd565b61023b610236366004611c4c565b61067f565b005b6101c061024b366004611c33565b600e6020526000908152604090205481565b6006546101c09081565b6101c0610275366004611d4d565b610880565b61028d610288366004611df8565b6109b9565b604080516001600160a01b0390931683526020830191909152016101ca565b61023b6102ba366004611eaf565b610a05565b6102e86102cd366004611c33565b600d602052600090815260409020546001600160a01b031681565b6040516001600160a01b0390911681526020016101ca565b61031361030e366004611f5d565b610a51565b6040516101ca9190612065565b6101c061032e366004611c33565b600a6020526000908152604090205481565b61023b610b7b565b6003546001600160a01b03166102e8565b6101c0610367366004612078565b610b8f565b61023b61037a3660046120d3565b610d0e565b61023b61038d366004612108565b610d1d565b6101c06103a0366004611c33565b600b6020526000908152604090205481565b6004546102e8906001600160a01b031681565b610208610df2565b6101e66103db36600461212b565b6001600160a01b03918216600090815260016020908152604080832093909416825291909152205460ff1690565b61023b610417366004612164565b610e40565b61023b61042a3660046121cd565b610e85565b61044261043d366004611c33565b610efe565b6040516101ca969594939291906121ea565b61023b6104623660046121cd565b6110d3565b60006001600160a01b0383166104d75760405162461bcd60e51b815260206004820152602a60248201527f455243313135353a2061646472657373207a65726f206973206e6f742061207660448201526930b634b21037bbb732b960b11b60648201526084015b60405180910390fd5b506000908152602081815260408083206001600160a01b03949094168352929052205490565b60006001600160e01b03198216636cdb3d1360e11b148061052e57506001600160e01b031982166303a24d0760e21b145b8061054957506301ffc9a760e01b6001600160e01b03198316145b92915050565b6005805461055c90612244565b80601f016020809104026020016040519081016040528092919081815260200182805461058890612244565b80156105d55780601f106105aa576101008083540402835291602001916105d5565b820191906000526020600020905b8154815290600101906020018083116105b857829003601f168201915b505050505081565b60008181526009602052604090208054606091906105fa90612244565b80601f016020809104026020016040519081016040528092919081815260200182805461062690612244565b80156106735780601f1061064857610100808354040283529160200191610673565b820191906000526020600020905b81548152906001019060200180831161065657829003601f168201915b50505050509050919050565b6000828152600e602090815260408083205480845260089092529091206002015460ff166107035760405162461bcd60e51b815260206004820152602b60248201527f4d696e74696e67206973206e6f7420656e61626c656420666f7220746869732060448201526a31b7b63632b1ba34b7b71760a91b60648201526084016104ce565b600081815260086020526040902060030154610721426103e8612295565b1061078c5760405162461bcd60e51b815260206004820152603560248201527f596f7527726520746f6f206c6174652e204d696e74696e6720666f7220746869604482015274399031b7b63632b1ba34b7b71032bc3834b932b21760591b60648201526084016104ce565b6107a784848460405180602001604052806000815250611134565b6000838152600a602052604081208054916107c1836122b4565b90915550506000838152600c602090815260408083206001600160a01b038816845290915290205460ff16610839576000838152600c602090815260408083206001600160a01b03881684528252808320805460ff19166001179055858352600b9091528120805491610833836122b4565b91905055505b604080518481526001600160a01b03861660208201527f3a5398bda6f1f57d6c96834fa9bf02b5517bdc847d14312015a917ba421c31c9910160405180910390a150505050565b60006108946003546001600160a01b031690565b6001600160a01b0316336001600160a01b031614806108bd57506004546001600160a01b031633145b6108d95760405162461bcd60e51b81526004016104ce906122cf565b6108e7600680546001019055565b60006108f260065490565b6040805160c0810182528a815260208082018b905289151582840152606082018990526080820188905260a08201879052600084815260088252929092208151805194955091939092610949928492910190611ab0565b5060208281015180516109629260018501920190611ab0565b50604082015160028201805460ff1916911515919091179055606082015160038201556080820151600482015560a082015180516109aa916005840191602090910190611ab0565b50919998505050505050505050565b600082815260086020908152604080832060040154600d9092528220548291906001600160a01b03166127106109ef8387612295565b6109f991906122ff565b90969095509350505050565b6001600160a01b038516331480610a215750610a2185336103db565b610a3d5760405162461bcd60e51b81526004016104ce90612321565b610a4a8585858585611248565b5050505050565b60608151835114610ab65760405162461bcd60e51b815260206004820152602960248201527f455243313135353a206163636f756e747320616e6420696473206c656e677468604482015268040dad2e6dac2e8c6d60bb1b60648201526084016104ce565b6000835167ffffffffffffffff811115610ad257610ad2611c81565b604051908082528060200260200182016040528015610afb578160200160208202803683370190505b50905060005b8451811015610b7357610b46858281518110610b1f57610b1f61236f565b6020026020010151858381518110610b3957610b3961236f565b6020026020010151610467565b828281518110610b5857610b5861236f565b6020908102919091010152610b6c816122b4565b9050610b01565b509392505050565b610b83611425565b610b8d600061147f565b565b6000610ba36003546001600160a01b031690565b6001600160a01b0316336001600160a01b03161480610bcc57506004546001600160a01b031633145b610be85760405162461bcd60e51b81526004016104ce906122cf565b610bf6600780546001019055565b6000610c0160075490565b60008181526009602090815260409091208651929350610c25929091870190611ab0565b50610c423382600160405180602001604052806000815250611134565b604080518281523360208201527f3a5398bda6f1f57d6c96834fa9bf02b5517bdc847d14312015a917ba421c31c9910160405180910390a16000818152600e60209081526040808320889055600a9091528120805491610ca1836122b4565b90915550506000818152600d6020908152604080832080546001600160a01b0319166001600160a01b038816179055600c82528083203384528252808320805460ff19166001179055838352600b9091528120805491610d00836122b4565b909155509095945050505050565b610d193383836114d1565b5050565b6003546001600160a01b0316331480610d4057506004546001600160a01b031633145b610d5c5760405162461bcd60e51b81526004016104ce906122cf565b60008281526008602052604090206002015460ff1615158115151415610dcf5760405162461bcd60e51b815260206004820152602260248201527f416c72656164792073657420746f207468652070726f76696465642076616c75604482015261329760f11b60648201526084016104ce565b600091825260086020526040909120600201805460ff1916911515919091179055565b6060600060405180610100016040528060dd815260200161268e60dd91399050610e1b816115b2565b604051602001610e2b9190612385565b60405160208183030381529060405291505090565b6001600160a01b038516331480610e5c5750610e5c85336103db565b610e785760405162461bcd60e51b81526004016104ce90612321565b610a4a8585858585611706565b610e8d611425565b6001600160a01b038116610ef25760405162461bcd60e51b815260206004820152602660248201527f4f776e61626c653a206e6577206f776e657220697320746865207a65726f206160448201526564647265737360d01b60648201526084016104ce565b610efb8161147f565b50565b600860205260009081526040902080548190610f1990612244565b80601f0160208091040260200160405190810160405280929190818152602001828054610f4590612244565b8015610f925780601f10610f6757610100808354040283529160200191610f92565b820191906000526020600020905b815481529060010190602001808311610f7557829003601f168201915b505050505090806001018054610fa790612244565b80601f0160208091040260200160405190810160405280929190818152602001828054610fd390612244565b80156110205780601f10610ff557610100808354040283529160200191611020565b820191906000526020600020905b81548152906001019060200180831161100357829003601f168201915b505050600284015460038501546004860154600587018054969760ff909416969295509093509061105090612244565b80601f016020809104026020016040519081016040528092919081815260200182805461107c90612244565b80156110c95780601f1061109e576101008083540402835291602001916110c9565b820191906000526020600020905b8154815290600101906020018083116110ac57829003601f168201915b5050505050905086565b6003546001600160a01b03163314806110f657506004546001600160a01b031633145b6111125760405162461bcd60e51b81526004016104ce906122cf565b600480546001600160a01b0319166001600160a01b0392909216919091179055565b6001600160a01b0384166111945760405162461bcd60e51b815260206004820152602160248201527f455243313135353a206d696e7420746f20746865207a65726f206164647265736044820152607360f81b60648201526084016104ce565b3360006111a085611830565b905060006111ad85611830565b90506000868152602081815260408083206001600160a01b038b168452909152812080548792906111df9084906123ca565b909155505060408051878152602081018790526001600160a01b03808a1692600092918716917fc3d58168c5ae7397731d063d5bbf3d657854427343f4c083240f7aacaa2d0f62910160405180910390a461123f8360008989898961187b565b50505050505050565b81518351146112aa5760405162461bcd60e51b815260206004820152602860248201527f455243313135353a2069647320616e6420616d6f756e7473206c656e677468206044820152670dad2e6dac2e8c6d60c31b60648201526084016104ce565b6001600160a01b0384166112d05760405162461bcd60e51b81526004016104ce906123e2565b3360005b84518110156113b75760008582815181106112f1576112f161236f565b60200260200101519050600085838151811061130f5761130f61236f565b602090810291909101810151600084815280835260408082206001600160a01b038e16835290935291909120549091508181101561135f5760405162461bcd60e51b81526004016104ce90612427565b6000838152602081815260408083206001600160a01b038e8116855292528083208585039055908b1682528120805484929061139c9084906123ca565b92505081905550505050806113b0906122b4565b90506112d4565b50846001600160a01b0316866001600160a01b0316826001600160a01b03167f4a39dc06d4c0dbc64b70af90fd698a233a518aa5d07e595d983b8c0526c8f7fb8787604051611407929190612471565b60405180910390a461141d8187878787876119e6565b505050505050565b6003546001600160a01b03163314610b8d5760405162461bcd60e51b815260206004820181905260248201527f4f776e61626c653a2063616c6c6572206973206e6f7420746865206f776e657260448201526064016104ce565b600380546001600160a01b038381166001600160a01b0319831681179093556040519116919082907f8be0079c531659141344cd1fd0a4f28419497f9722a3daafe3b4186f6b6457e090600090a35050565b816001600160a01b0316836001600160a01b031614156115455760405162461bcd60e51b815260206004820152602960248201527f455243313135353a2073657474696e6720617070726f76616c20737461747573604482015268103337b91039b2b63360b91b60648201526084016104ce565b6001600160a01b03838116600081815260016020908152604080832094871680845294825291829020805460ff191686151590811790915591519182527f17307eab39ab6107e8899845ad3d59bd9653f200f220920489ca2b5937696c31910160405180910390a3505050565b60608151600014156115d257505060408051602081019091526000815290565b600060405180606001604052806040815260200161264e604091399050600060038451600261160191906123ca565b61160b91906122ff565b611616906004612295565b67ffffffffffffffff81111561162e5761162e611c81565b6040519080825280601f01601f191660200182016040528015611658576020820181803683370190505b509050600182016020820185865187015b808210156116c4576003820191508151603f8160121c168501518453600184019350603f81600c1c168501518453600184019350603f8160061c168501518453600184019350603f8116850151845350600183019250611669565b50506003865106600181146116e057600281146116f3576116fb565b603d6001830353603d60028303536116fb565b603d60018303535b509195945050505050565b6001600160a01b03841661172c5760405162461bcd60e51b81526004016104ce906123e2565b33600061173885611830565b9050600061174585611830565b90506000868152602081815260408083206001600160a01b038c168452909152902054858110156117885760405162461bcd60e51b81526004016104ce90612427565b6000878152602081815260408083206001600160a01b038d8116855292528083208985039055908a168252812080548892906117c59084906123ca565b909155505060408051888152602081018890526001600160a01b03808b16928c821692918816917fc3d58168c5ae7397731d063d5bbf3d657854427343f4c083240f7aacaa2d0f62910160405180910390a4611825848a8a8a8a8a61187b565b505050505050505050565b6040805160018082528183019092526060916000919060208083019080368337019050509050828160008151811061186a5761186a61236f565b602090810291909101015292915050565b6001600160a01b0384163b1561141d5760405163f23a6e6160e01b81526001600160a01b0385169063f23a6e61906118bf908990899088908890889060040161249f565b602060405180830381600087803b1580156118d957600080fd5b505af1925050508015611909575060408051601f3d908101601f19168201909252611906918101906124e4565b60015b6119b657611915612501565b806308c379a0141561194f575061192a61251d565b806119355750611951565b8060405162461bcd60e51b81526004016104ce9190611c20565b505b60405162461bcd60e51b815260206004820152603460248201527f455243313135353a207472616e7366657220746f206e6f6e2d455243313135356044820152732932b1b2b4bb32b91034b6b83632b6b2b73a32b960611b60648201526084016104ce565b6001600160e01b0319811663f23a6e6160e01b1461123f5760405162461bcd60e51b81526004016104ce906125a7565b6001600160a01b0384163b1561141d5760405163bc197c8160e01b81526001600160a01b0385169063bc197c8190611a2a90899089908890889088906004016125ef565b602060405180830381600087803b158015611a4457600080fd5b505af1925050508015611a74575060408051601f3d908101601f19168201909252611a71918101906124e4565b60015b611a8057611915612501565b6001600160e01b0319811663bc197c8160e01b1461123f5760405162461bcd60e51b81526004016104ce906125a7565b828054611abc90612244565b90600052602060002090601f016020900481019282611ade5760008555611b24565b82601f10611af757805160ff1916838001178555611b24565b82800160010185558215611b24579182015b82811115611b24578251825591602001919060010190611b09565b50611b30929150611b34565b5090565b5b80821115611b305760008155600101611b35565b6001600160a01b0381168114610efb57600080fd5b60008060408385031215611b7157600080fd5b8235611b7c81611b49565b946020939093013593505050565b6001600160e01b031981168114610efb57600080fd5b600060208284031215611bb257600080fd5b8135611bbd81611b8a565b9392505050565b60005b83811015611bdf578181015183820152602001611bc7565b83811115611bee576000848401525b50505050565b60008151808452611c0c816020860160208601611bc4565b601f01601f19169290920160200192915050565b602081526000611bbd6020830184611bf4565b600060208284031215611c4557600080fd5b5035919050565b600080600060608486031215611c6157600080fd5b8335611c6c81611b49565b95602085013595506040909401359392505050565b634e487b7160e01b600052604160045260246000fd5b601f8201601f1916810167ffffffffffffffff81118282101715611cbd57611cbd611c81565b6040525050565b600082601f830112611cd557600080fd5b813567ffffffffffffffff811115611cef57611cef611c81565b604051611d06601f8301601f191660200182611c97565b818152846020838601011115611d1b57600080fd5b816020850160208301376000918101602001919091529392505050565b80358015158114611d4857600080fd5b919050565b60008060008060008060c08789031215611d6657600080fd5b863567ffffffffffffffff80821115611d7e57600080fd5b611d8a8a838b01611cc4565b97506020890135915080821115611da057600080fd5b611dac8a838b01611cc4565b9650611dba60408a01611d38565b9550606089013594506080890135935060a0890135915080821115611dde57600080fd5b50611deb89828a01611cc4565b9150509295509295509295565b60008060408385031215611e0b57600080fd5b50508035926020909101359150565b600067ffffffffffffffff821115611e3457611e34611c81565b5060051b60200190565b600082601f830112611e4f57600080fd5b81356020611e5c82611e1a565b604051611e698282611c97565b83815260059390931b8501820192828101915086841115611e8957600080fd5b8286015b84811015611ea45780358352918301918301611e8d565b509695505050505050565b600080600080600060a08688031215611ec757600080fd5b8535611ed281611b49565b94506020860135611ee281611b49565b9350604086013567ffffffffffffffff80821115611eff57600080fd5b611f0b89838a01611e3e565b94506060880135915080821115611f2157600080fd5b611f2d89838a01611e3e565b93506080880135915080821115611f4357600080fd5b50611f5088828901611cc4565b9150509295509295909350565b60008060408385031215611f7057600080fd5b823567ffffffffffffffff80821115611f8857600080fd5b818501915085601f830112611f9c57600080fd5b81356020611fa982611e1a565b604051611fb68282611c97565b83815260059390931b8501820192828101915089841115611fd657600080fd5b948201945b83861015611ffd578535611fee81611b49565b82529482019490820190611fdb565b9650508601359250508082111561201357600080fd5b5061202085828601611e3e565b9150509250929050565b600081518084526020808501945080840160005b8381101561205a5781518752958201959082019060010161203e565b509495945050505050565b602081526000611bbd602083018461202a565b60008060006060848603121561208d57600080fd5b83359250602084013567ffffffffffffffff8111156120ab57600080fd5b6120b786828701611cc4565b92505060408401356120c881611b49565b809150509250925092565b600080604083850312156120e657600080fd5b82356120f181611b49565b91506120ff60208401611d38565b90509250929050565b6000806040838503121561211b57600080fd5b823591506120ff60208401611d38565b6000806040838503121561213e57600080fd5b823561214981611b49565b9150602083013561215981611b49565b809150509250929050565b600080600080600060a0868803121561217c57600080fd5b853561218781611b49565b9450602086013561219781611b49565b93506040860135925060608601359150608086013567ffffffffffffffff8111156121c157600080fd5b611f5088828901611cc4565b6000602082840312156121df57600080fd5b8135611bbd81611b49565b60c0815260006121fd60c0830189611bf4565b828103602084015261220f8189611bf4565b9050861515604084015285606084015284608084015282810360a08401526122378185611bf4565b9998505050505050505050565b600181811c9082168061225857607f821691505b6020821081141561227957634e487b7160e01b600052602260045260246000fd5b50919050565b634e487b7160e01b600052601160045260246000fd5b60008160001904831182151516156122af576122af61227f565b500290565b60006000198214156122c8576122c861227f565b5060010190565b6020808252601690820152752737ba1037bbb732b91037b9103232bb32b637b832b960511b604082015260600190565b60008261231c57634e487b7160e01b600052601260045260246000fd5b500490565b6020808252602e908201527f455243313135353a2063616c6c6572206973206e6f7420746f6b656e206f776e60408201526d195c881bdc88185c1c1c9bdd995960921b606082015260800190565b634e487b7160e01b600052603260045260246000fd5b7f646174613a6170706c69636174696f6e2f6a736f6e3b6261736536342c0000008152600082516123bd81601d850160208701611bc4565b91909101601d0192915050565b600082198211156123dd576123dd61227f565b500190565b60208082526025908201527f455243313135353a207472616e7366657220746f20746865207a65726f206164604082015264647265737360d81b606082015260800190565b6020808252602a908201527f455243313135353a20696e73756666696369656e742062616c616e636520666f60408201526939103a3930b739b332b960b11b606082015260800190565b604081526000612484604083018561202a565b8281036020840152612496818561202a565b95945050505050565b6001600160a01b03868116825285166020820152604081018490526060810183905260a0608082018190526000906124d990830184611bf4565b979650505050505050565b6000602082840312156124f657600080fd5b8151611bbd81611b8a565b600060033d111561251a5760046000803e5060005160e01c5b90565b600060443d101561252b5790565b6040516003193d81016004833e81513d67ffffffffffffffff816024840111818411171561255b57505050505090565b82850191508151818111156125735750505050505090565b843d870101602082850101111561258d5750505050505090565b61259c60208286010187611c97565b509095945050505050565b60208082526028908201527f455243313135353a204552433131353552656365697665722072656a656374656040820152676420746f6b656e7360c01b606082015260800190565b6001600160a01b0386811682528516602082015260a06040820181905260009061261b9083018661202a565b828103606084015261262d818661202a565b905082810360808401526126418185611bf4565b9897505050505050505056fe4142434445464748494a4b4c4d4e4f505152535455565758595a6162636465666768696a6b6c6d6e6f707172737475767778797a303132333435363738392b2f7b226e616d65223a20225348494654204341505455524553222c226465736372697074696f6e223a2022436c61696d20616e206f66662d636861696e2070726f6f662d6f662d776f726b204e465420617274776f726b20636170747572696e6720746865206c61626f7220706572666f726d6564206c69766520627920616e2061637475616c20776f726b65722c207369676e656420616e642074696d657374616d70656420627920534849465420696e207468652063697479207468652049524c20706572666f726d616e63652074616b657320706c6163652e227da2646970667358221220f012a2ea346bc47ba6bd3d50a1817579d4f02223f713dd48a45a14cc3836eb5264736f6c63430008090033",
  "linkReferences": {},
  "deployedLinkReferences": {}
}